:020000040000FA
:1000000080310828FF3FFF3F80318031C42F090035
:1000100080310A28F630840026308500FA30FE0050
:10002000FF018631292680313D3084000030850073
:100030001930FE00FF01863129268031A03084006E
:10004000003085004030FE00FF01863129268031D6
:10005000D230840085308500203086000030870053
:100060001D30FF0186313526803120003728FA0106
:10007000FB01FC01562322000D148B130B132100EE
:100080008D120D1222008D120D1221000D138D13F1
:1000900022000D138D1306302000CA00863104267D
:1000A000803120004E08D0004F08D1000530CA0032
:1000B00086310426803120004E08D3004F08D4003A
:1000C00045309D218031500603196B285008F200FD
:1000D00045304022803146309D2180315106031940
:1000E00076285108F20046304022803147309D2169
:1000F00080315306031981285308F200473040220B
:10010000803148309D218031540603198C285408D1
:10011000F20048304022803141309D218031CB00B7
:10012000FE3A0319BA010E1D9C2840309D21013A68
:10013000031D3A08031DC02FFD017D083D3E8600CA
:1001400087017D08FA3E9D21803181000630FD0A3D
:100150007D02031C9D28FD01200042087D0203183A
:10016000BC280330F9009730F800F80BB528F90BDC
:10017000B5280032FD0AAC285230B92180317622F0
:10018000803122000D106400FA0A0319FB0A503076
:100190007A06C33003197B06031DE528FA01FB012B
:1001A00020003B080319DC28BB0BDC283A080319A4
:1001B000DB28C02FDC2801000330FC0A7C02031C72
:1001C000E5288030FC0122008C068331CE2380316B
:1001D00052080319C328F6308600263087005130B4
:1001E00047310106031DFD280C303C06031DFD2888
:1001F0005230B92180315E228031F63086002630BF
:100200008700503047310106A6238031031D3C2969
:100210004B3101083D06A6238031031D3C294C319A
:1002200001083E06A6238031031D3C294D310108FB
:100230003F06A6238031031D3C294E3101084006AC
:10024000A6238031031D3C294F3101084106A62316
:100250008031031D3C29503101084206A62380311C
:10026000031D3C2949310108BC000130B92180310E
:100270005E228031A6238031453101083C06031DF2
:100280009B29F630860026308700F0304731010682
:10029000031D4D29F130B9218031F630860026301A
:1002A0008700F53047310106A6238031031D8729D9
:1002B0004B310108031D7129F630853156258031F7
:1002C000031D71290130B9218031FD30F200413028
:1002D00040228031BA01BA0A3908C6003808C50080
:1002E000832920003A0803197A29FE30BA01F20066
:1002F000413040228431E4248031003A03198529B9
:100300000130B921803176228031A6238031F73047
:1003100047310106031D9929F630860026308700F3
:10032000023049310106031D992920003A0B992911
:10033000C02F5E228031D201C328F2006B228031AF
:1003400062228031A030F000F10155228031720824
:10035000F000F1015522803138238031A130F000C6
:10036000F101552280314D238031F300652373085C
:100370000800F7007330860027308700FF30C03F49
:10038000753041318101860027308700FF308100C0
:1003900076308600A53081007730860001308100FC
:1003A00078308600103081007930860020003C08CB
:1003B00081007A30860077088100302A7B30860001
:1003C0002730870008306E238031F4297B30860087
:1003D0002730870001308100F63086002630870004
:1003E00047310108F6007C30860027308700760808
:1003F0002E2A7B3086002730870012306E23803112
:1004000086007608810084308600FF3081008530C8
:100410008600FF3081008630860001308100733015
:1004200086008830543181018600273087005008CB
:10043000810089308600510881008A308600530887
:1004400081008B30860054088100733086008D3027
:1004500059318101860027308700403081003B2AD6
:100460007708013A0319E629533A0319DE29A33A1A
:100470000319F9293B2A8431A52480318431632C66
:10048000F3006B22803162228031A030F000F10154
:10049000552280317308F000F10155228031720835
:1004A000F000F10155228031AB2B20009111700832
:1004B000240091002000911908005A2A5030200091
:1004C000BB00080020009111240016142000911D8B
:1004D000662A9111080062228031A030F000F101FB
:1004E000552280312400161F08006B2AF401803049
:1004F000F500F201F301200046082102031D822AC3
:1005000045082002031CF21746082302031D8A2A0D
:1005100045082202031C721746082502031D922A71
:1005200045082402031CF21646082702031D9A2AD6
:1005300045082602031C721646082902031DA22A3A
:1005400045082802031CF21546082B02031DAA2A9F
:1005500045082A02031C721546082D02031DB22A03
:1005600045082C02031C731746082F02031DBA2AE4
:1005700045082E02031CF31646083102031DC22A49
:1005800045083002031C731646083302031DCA2AAD
:1005900045083202031CF31546083502031DD22A12
:1005A00045083402031C731546083702031DDA2A76
:1005B00045083602031CF31446083906031DE22AD7
:1005C0004508380603197314083024009500E030FC
:1005D0003D00A305A4053C00A001A10121000E12CD
:1005E0008E1122008E110630F1003030F000F00B39
:1005F000F72AF10BF72A0000F601103076020318F3
:10060000252B74087205F00075087305F10070045D
:1006100003190D2B22000E160F2B22000E121A307A
:10062000F000F00B112B000022008E150630F100B7
:100630003030F000F00B1A2BF10B1A2B00002200C7
:100640008E11F536F40CF60AFD2A22000E128E16D3
:100650001A30F000F00B2A2B000022008E123D0011
:10066000982321000E168E152830240095000800CE
:100670003E2380319614961C08003B2B240014085E
:10068000F0000430F0051608F1001F30F105700885
:1006900071040319080020003E2B240096159619BA
:1006A0004F2B141C512B1108F00008005D238531DD
:1006B0005C258031C2238031B22B7030210099003B
:1006C0009A0198011A1B0800622B20009111240046
:1006D000961616162000911908006A2B81007330B7
:1006E00086007D30493181018600273087008030C7
:1006F00081007E3086003D0881003E08F6007F3094
:100700008600760881003F08F60080308600760873
:1007100081004008F600813086007608810041089B
:10072000F60082308600760881004208F6008334A5
:100730002308E0391038A3002408E0391138A40058
:1007400013303C00A0001430A1000800F6308600F1
:1007500026308700080091112400161520009119F9
:100760000800AE2B91121112483023009F009030E8
:100770009D0026309E0040309B0003309C009A0173
:1007800099010800240094012830950097014F300A
:100790009200200091112100911108002000911E6B
:1007A0000800911223001908F2003A2C720FDB2B7B
:1007B000550856240800D501080072080319D82BE3
:1007C000DB2BA5307206031DDB2B5508562472085F
:1007D000C300C401080046240318C40A08000F30EF
:1007E00072060319EB2B0C3072060319EB2B7208FF
:1007F0003C060319EB2BDB2B462483310318C40A78
:10080000103A031D08000C303C0603190800823121
:100810005E2A46240318C40AF63086002630870074
:1008200048310108CD00CC01C701C80108004D08BE
:1008300003191F2C46240318C40ACD0308000230F4
:100840004C02031808004708C800C7017208C70710
:100850000318C80A0230CC0A4C06031D08004408DD
:100860004806031D352C43084706031D0800D20126
:10087000D20ADB2B2000550884000930040203183B
:10088000172C86310435173E820008005508F63EC5
:10089000F0002630F101F13D7008860071088700F4
:1008A00072088100D50A7208C3070800F63EF000FE
:1008B0002630F101F13D700886007108870072084A
:1008C0008100D50A08009E2484310B3EF200F3011A
:1008D000F40104307402D3300319730203187D2C21
:1008E00064002000911E792C911223001908F30155
:1008F000F401F30A0319F40A692C22008D160D166F
:100900001A30F100F830F000F00B842CF10B842C3D
:100910000000F5017208750203189A2C7508DD2491
:10092000843123009A0023009E18982C6400932C95
:10093000F50A8A2C22008D120D12080073308600F1
:10094000273087004831010808000330F301F40123
:10095000F5009E248431093EF00000300318013078
:10096000F100803A803C031DB72C70087502031813
:10097000C12C7508DD248431F3070318F40AF50A45
:10098000A92C7408F0007508733EF1002730F201BD
:10099000F23D710886007208870070088100F50A30
:1009A0007508733EF0002730F101F13D70088600B4
:1009B00071088700730881000800733E86002730A5
:1009C0008701873D01080800F63086002630870041
:1009D0004B310108F400F501F500F630F40156251D
:1009E0008431F4040730F536F40C7502C030031975
:1009F0007402031C00343F307502FF300319740287
:100A0000031800347408CA007508C900F601760896
:100A1000A03E860087017608F0000430F101F20064
:100A20002730F3007008720784007108733D850059
:100A3000000881004030F60A7602031C072D85313C
:100A4000EF2584318531A6258431F60176087407B7
:100A5000F00075080318750AF1002300920076086B
:100A60007407910015131514000000007635A03EA0
:100A700086008701010823001306031D0034763524
:100A8000A13E86003F300105F0003F301405F10023
:100A90007006031D0034910A2030F60A7602031C0A
:100AA000262D2000C50A0319C60A01348600263007
:100AB00087004C31010808004F3022008C002100D3
:100AC0008C0023008C0124008C01CE3022008D008C
:100AD00021008D000E3023008D0024008D019F30F9
:100AE00022008E008F3021008E0023008E01240012
:100AF0008E010830210090002400900121009517FC
:100B000000308B1B0130F0008B1355303C008F0000
:100B1000AA308F008F012408E0391738A4003D0067
:100B20002608E0391438A6008331982385315530E2
:100B30008F00AA308F0001308F00701CA12D8B1701
:100B4000A22D8B1321000E168E1508008B1320008A
:100B500049082300920020004A0823009100A03099
:100B600084000030850015131515951612009300AA
:100B70001200940011081F3A1F390319C82D55306F
:100B80009600AA309600951400000000910AB62D38
:100B9000951255309600AA3096009514000000007A
:100BA0001511080000340034263400344B3400346E
:100BB0007134003496340034BC340034E1340034F1
:100BC000073401342C340134523401347734013485
:100BD0009D340134C2340134013418340C348B1385
:100BE000200049082300920020004A0823009100B9
:100BF00015131516151555309600AA309600951444
:100C000000000000151108008B1320004A08230083
:100C10009100920115171514000000001308200020
:100C2000CF00230014082000CE008B13080083316E
:100C3000D62B8331DD2B8331D62B8331E12B8331CE
:100C4000EB2B8331EF2B8331FC2B8331EB2B843166
:100C5000092C6400013080010131FE020030FF3BAD
:100C60007F087E04031900342A2EFE0012001E00A5
:100C70000130FE020030FF3B7F087E040319003480
:100C8000362EFF3FFF3FFF3FFF3FFF3FFF3FFF3F4E
:100C9000FF3FFF3FFF3FFF3FFF3FFF3FFF3FFF3F64
:100CA000FF3FFF3FFF3FFF3FFF3FFF3FFF3FFF3F54
:100CB000FF3FFF3FFF3FFF3FFF3FFF3FFF3FFF3F44
:100CC000FF3FFF3FFF3FFF3FFF3FFF3FFF3FFF3F34
:020000040001F9
:04000E009C2F7B1395
:08000000FF3FFF3FFF3FFF3F00
:00000001FF