:020000040000FA
:1000000080310828FF3FFF3F80318031C42F090035
:1000100080310A28F630840026308500FA30FE0050
:10002000FF018631292680313D3084000030850073
:100030001930FE00FF01863129268031A03084006E
:10004000003085004030FE00FF01863129268031D6
:10005000D230840085308500203086000030870053
:100060001D30FF0186313526803120003728FA0106
:10007000FB01FC01562322000D148B130B132100EE
:100080008D120D1222008D120D1221000D138D13F1
:1000900022000D138D1306302000CA00863104267D
:1000A000803120004E08D0004F08D1000530CA0032
:1000B00086310426803120004E08D3004F08D4003A
:1000C00045309D218031500603196B285008F200FD
:1000D00045304022803146309D2180315106031940
:1000E00076285108F20046304022803147309D2169
:1000F00080315306031981285308F200473040220B
:10010000803148309D218031540603198C285408D1
:10011000F20048304022803141309D218031CB00B7
:10012000FE3A0319BA010E1D9C2840309D21013A68
:10013000031D3A08031DC02FFD017D083D3E8600CA
:1001400087017D08FA3E9D21803181000630FD0A3D
:100150007D02031C9D28FD01200042087D0203183A
:10016000BC280330F9009730F800F80BB528F90BDC
:10017000B5280032FD0AAC285230B92180317622F0
:10018000803122000D106400FA0A0319FB0A503076
:100190007A06C33003197B06031DE528FA01FB012B
:1001A00020003B080319DC28BB0BDC283A080319A4
:1001B000DB28C02FDC2801000330FC0A7C02031C72
:1001C000E5288030FC0122008C068331CE2380316B
:1001D00052080319C328F6308600263087005130B4
:1001E00047310106031DFD280C303C06031DFD2888
:1001F0005230B92180315E228031F63086002630BF
:100200008700503047310106A6238031031D3C2969
:100210004B3101083D06A6238031031D3C294C319A
:1002200001083E06A6238031031D3C294D310108FB
:100230003F06A6238031031D3C294E3101084006AC
:10024000A6238031031D3C294F3101084106A62316
:100250008031031D3C29503101084206A62380311C
:10026000031D3C2949310108BC000130B92180310E
:100270005E228031A6238031453101083C06031DF2
:100280009B29F630860026308700F0304731010682
:10029000031D4D29F130B9218031F630860026301A
:1002A0008700F53047310106A6238031031D8729D9
:1002B0004B310108031D7129F630853156258031F7
:1002C000031D71290130B9218031FD30F200413028
:1002D00040228031BA01BA0A3908C6003808C50080
:1002E000832920003A0803197A29FE30BA01F20066
:1002F000413040228431E4248031003A03198529B9
:100300000130B921803176228031A6238031F73047
:1003100047310106031D9929F630860026308700F3
:10032000023049310106031D992920003A0B992911
:10033000C02F5E228031D201C328F2006B228031AF
:1003400062228031A030F000F10155228031720824
:10035000F000F1015522803138238031A130F000C6
:10036000F101552280314D238031F300652373085C
:100370000800F7007330860027308700FF30C03F49
:10038000753041318101860027308700FF308100C0
:1003900076308600A53081007730860001308100FC
:1003A00078308600103081007930860020003C08CB
:1003B00081007A30860077088100302A7B30860001
:1003C0002730870008306E238031F4297B30860087
:1003D0002730870001308100F63086002630870004
:1003E00047310108F6007C30860027308700760808
:1003F0002E2A7B3086002730870012306E23803112
:1004000086007608810084308600FF3081008530C8
:100410008600FF3081008630860001308100733015
:1004200086008830543181018600273087005008CB
:10043000810089308600510881008A308600530887
:1004400081008B30860054088100733086008D3027
:1004500059318101860027308700403081003B2AD6
:100460007708013A0319E629533A0319DE29A33A1A
:100470000319F9293B2A8431A52480318431632C66
:10048000F3006B22803162228031A030F000F10154
:10049000552280317308F000F10155228031720835
:1004A000F000F10155228031AB2B20009111700832
:1004B000240091002000911908005A2A5030200091
:1004C000BB00080020009111240016142000911D8B
:1004D000662A9111080062228031A030F000F101FB
:1004E000552280312400161F08006B2AF401803049
:1004F000F500F201F301200046082102031D822AC3
:1005000045082002031CF21746082302031D8A2A0D
:1005100045082202031C721746082502031D922A71
:1005200045082402031CF21646082702031D9A2AD6
:1005300045082602031C721646082902031DA22A3A
:1005400045082802031CF21546082B02031DAA2A9F
:1005500045082A02031C721546082D02031DB22A03
:1005600045082C02031C731746082F02031DBA2AE4
:1005700045082E02031CF31646083102031DC22A49
:1005800045083002031C731646083302031DCA2AAD
:1005900045083202031CF31546083502031DD22A12
:1005A00045083402031C731546083702031DDA2A76
:1005B00045083602031CF31446083906031DE22AD7
:1005C0004508380603197314083024009500E030FC
:1005D0003D00A305A4053C00A001A10121000E12CD
:1005E0008E1122008E110630F1003030F000F00B39
:1005F000F72AF10BF72A0000F601103076020318F3
:10060000252B74087205F00075087305F10070045D
:1006100003190D2B22000E160F2B22000E121A307A
:10062000F000F00B112B000022008E150630F100B7
:100630003030F000F00B1A2BF10B1A2B00002200C7
:100640008E11F536F40CF60AFD2A22000E128E16D3
:100650001A30F000F00B2A2B000022008E123D0011
:10066000982321000E168E152830240095000800CE
:100670003E2380319614961C08003B2B240014085E
:10068000F0000430F0051608F1001F30F105700885
:1006900071040319080020003E2B240096159619BA
:1006A0004F2B141C512B1108F00008005D238531DD
:1006B0005C258031C2238031B22B7030210099003B
:1006C0009A0198011A1B0800622B20009111240046
:1006D000961616162000911908006A2B81007330B7
:1006E00086007D30493181018600273087008030C7
:1006F00081007E3086003D0881003E08F6007F3094
:100700008600760881003F08F60080308600760873
:1007100081004008F600813086007608810041089B
:10072000F60082308600760881004208F6008334A5
:100730002308E0391038A3002408E0391138A40058
:1007400013303C00A0001430A1000800F6308600F1
:1007500026308700080091112400161520009119F9
:100760000800AE2B91121112483023009F009030E8
:100770009D0026309E0040309B0003309C009A0173
:1007800099010800240094012830950097014F300A
:100790009200200091112100911108002000911E6B
:1007A0000800911223001908F2003A2C720FDB2B7B
:1007B000550856240800D501080072080319D82BE3
:1007C000DB2BA5307206031DDB2B5508562472085F
:1007D000C300C401080046240318C40A08000F30EF
:1007E00072060319EB2B0C3072060319EB2B7208FF
:1007F0003C060319EB2BDB2B462483310318C40A78
:10080000103A031D08000C303C0603190800823121
:100810005E2A46240318C40AF63086002630870074
:1008200048310108CD00CC01C701C80108004D08BE
:1008300003191F2C46240318C40ACD0308000230F4
:100840004C02031808004708C800C7017208C70710
:100850000318C80A0230CC0A4C06031D08004408DD
:100860004806031D352C43084706031D0800D20126
:10087000D20ADB2B2000550884000930040203183B
:10088000172C86310435173E820008005508F63EC5
:10089000F0002630F101F13D7008860071088700F4
:1008A00072088100D50A7208C3070800F63EF000FE
:1008B0002630F101F13D700886007108870072084A
:1008C0008100D50A08009E2484310B3EF200F3011A
:1008D000F40104307402D3300319730203187D2C21
:1008E00064002000911E792C911223001908F30155
:1008F000F401F30A0319F40A692C22008D160D166F
:100900001A30F100F830F000F00B842CF10B842C3D
:100910000000F5017208750203189A2C7508DD2491
:10092000843123009A0023009E18982C6400932C95
:10093000F50A8A2C22008D120D12080073308600F1
:10094000273087004831010808000330F301F40123
:10095000F5009E248431093EF00000300318013078
:10096000F100803A803C031DB72C70087502031813
:10097000C12C7508DD248431F3070318F40AF50A45
:10098000A92C7408F0007508733EF1002730F201BD
:10099000F23D710886007208870070088100F50A30
:1009A0007508733EF0002730F101F13D70088600B4
:1009B00071088700730881000800733E86002730A5
:1009C0008701873D01080800F63086002630870041
:1009D0004B310108F400F501F500F630F40156251D
:1009E0008431F4040730F536F40C7502C030031975
:1009F0007402031C00343F307502FF300319740287
:100A0000031800347408CA007508C900F601760896
:100A1000A03E860087017608F0000430F101F20064
:100A20002730F3007008720784007108733D850059
:100A3000000881004030F60A7602031C072D85313C
:100A4000EF2584318531A6258431F60176087407B7
:100A5000F00075080318750AF1002300920076086B
:100A60007407910015131514000000007635A03EA0
:100A700086008701010823001306031D0034763524
:100A8000A13E86003F300105F0003F301405F10023
:100A90007006031D0034910A2030F60A7602031C0A
:100AA000262D2000C50A0319C60A01348600263007
:100AB00087004C31010808004F3022008C002100D3
:100AC0008C0023008C0124008C01CE3022008D008C
:100AD00021008D000E3023008D0024008D019F30F9
:100AE00022008E008F3021008E0023008E01240012
:100AF0008E010830210090002400900121009517FC
:100B000000308B1B0130F0008B1355303C008F0000
:100B1000AA308F008F012408E0391738A4003D0067
:100B20002608E0391438A6008331982385315530E2
:100B30008F00AA308F0001308F00701CA12D8B1701
:100B4000A22D8B1321000E168E1508008B1320008A
:100B500049082300920020004A0823009100A03099
:100B600084000030850015131515951612009300AA
:100B70001200940011081F3A1F390319C82D55306F
:100B80009600AA309600951400000000910AB62D38
:100B9000951255309600AA3096009514000000007A
:100BA0001511080000340034263400344B3400346E
:100BB0007134003496340034BC340034E1340034F1
:100BC000073401342C340134523401347734013485
:100BD0009D340134C2340134013418340C348B1385
:100BE000200049082300920020004A0823009100B9
:100BF00015131516151555309600AA309600951444
:100C000000000000151108008B1320004A08230083
:100C10009100920115171514000000001308200020
:100C2000CF00230014082000CE008B13080083316E
:100C3000D62B8331DD2B8331D62B8331E12B8331CE
:100C4000EB2B8331EF2B8331FC2B8331EB2B843166
:100C5000092C6400013080010131FE020030FF3BAD
:100C60007F087E04031900342A2EFE0012001E00A5
:100C70000130FE020030FF3B7F087E040319003480
:100C8000362EFF3FFF3FFF3FFF3FFF3FFF3FFF3F4E
:100C9000FF3FFF3FFF3FFF3FFF3FFF3FFF3FFF3F64
:100CA000FF3FFF3FFF3FFF3FFF3FFF3FFF3FFF3F54
:100CB000FF3FFF3FFF3FFF3FFF3FFF3FFF3FFF3F44
:100CC000FF3FFF3FFF3FFF3FFF3FFF3FFF3FFF3F34
:100F8000883103280800FF3F87312100911DCE2FB3
:100F90002000911DCE2FBE31D92687312100921D10
:100FA000D72F2000921DD72F8731C22787312100EC
:100FB000911EE02F2000911EE02FB0319520873147
:100FC0002100111EE92F2000111EE92FBD31F4254B
:100FD00087318B1A0B1DEF2FB031022087310B1C8C
:100FE00009000B102700131CFB2F13102200AC0A62
:100FF0000319AD0A0900931C090093102200A80AE6
:101000000319A90A09008F31AF2FA731EC2FA631A0
:10101000472EA631472EA631472EA631472EA631A0
:10102000472EA631472EA631472EA631472EA63190
:10103000472EA631472EA631472EA631472EA63180
:10104000472EA631472EA631472EA631472EA63170
:10105000472EA631472EA631472EA631472EA63160
:10106000472EA631472EA631472EA631472EA63150
:10107000472EA631472EA631472EA631472EA63140
:10108000472EA631472EA631472EA631472EA63130
:10109000472EA631472EA631472EA631472EA63120
:1010A000472EA631472EA631472EA631472EA63110
:1010B000472EA631472EA631472EA631472EA63100
:1010C000472EA631472EA631472EA631472EA631F0
:1010D000472EA631472EA631472EA631472EA631E0
:1010E000472EA631472EA631472EA631472EA631D0
:1010F000472EA631472EA631472EA631472EA631C0
:10110000472EA631472EA631472EA631472EA631AF
:10111000472EA631472EA631472EA631472EA6319F
:10112000472EA631472EA631472EA631472EA6318F
:10113000472EA631472EA631472EA631472EA6317F
:10114000472EA631472EA631472EA631472EA6316F
:10115000472EA631472EA631472EA631472EA6315F
:10116000472EA631472EA631472EA631472EA6314F
:10117000472EA631472EA631472EA631472EA6313F
:10118000472EA631472EA631472EA631472EA6312F
:10119000472EA631472EA631472EA631CB2EA6319B
:1011A000472EA631472EA631472EA631472EA6310F
:1011B000CB2EA631472EA631472EA631B22EA63110
:1011C000472EA631472EA631472EA631472EA631EF
:1011D000472EA631472EA631472EA631472EA631DF
:1011E000B42E6400013080010131FE020030FF3B6B
:1011F0007F087E0403190034F2282000D7004D3008
:101200008600013087004F30840001308500403F68
:101210000002A8000131413F003BA900D5218831DF
:101220002808DB002908DC002A08DD004030A8017E
:10123000A9004230AA005B08AB005C08AC005D0866
:10124000AD00E52188312808DB002908DC002A08E8
:10125000DD00220050082000A90022004F082000D5
:10126000A800D52188312808D8002908D9002A08E3
:10127000DA00DE015808AB005908AC005A08AD008E
:101280003F30A801A901AA00852288312808B400AE
:101290002908B5002A08B600542388315E08D30017
:1012A0001730D401D335D40DD5002630D6005308DD
:1012B000550786005408563D87003408C03F35085E
:1012C000C13F5B08B4005C08B5005D08B600580873
:1012D000B7005908B8005A08B900392388313408D2
:1012E000D8003508D9003608DA003130DE0A5E024F
:1012F000031C3A2957080319080021003408031970
:10130000080030302000B6000230B7005F30B8006F
:10131000A830B900A631452688313030A10002300E
:10132000A200A6312526883120003030DE01B6002B
:101330000230B7007330B800AD30B9005E08BA00B3
:10134000BB015E08D3001730D401D335D40DD500CE
:101350002630D6005308550786005408563D8700AE
:10136000403FBC00413FBD00A631452688313030AA
:10137000A1000230A200A63125268831200031309C
:10138000DE0A5E023030B6000230B700031C9A2934
:101390005F30B800A830B900A6314526883130301A
:1013A000A1000230A200A631252E2808A00029089D
:1013B000A1008E30A201A300A40147222008A800AA
:1013C0002108A9002208AA0008002B08AE002C085A
:1013D000AF002D08B00003102F0D300DB5003508FB
:1013E000031DF629A801A901AA0108002808AE00DA
:1013F0002908AF002A08B00003102F0D300DB600E9
:101400003608031D072AA801A901AA01080089308E
:10141000B201B301B4013607AE00B5022D08B60023
:101420002A08B6068030B6051830AC17AD01A917EA
:10143000AA01B100B235B30DB40D2A082D02031D67
:10144000272A29082C02031D272A28082B02031CFF
:10145000302A2808AB022908AC3B2A08AD3B3214DD
:10146000AB35AC0DAD0DB10B1A2A3208A000330814
:10147000A1003408A2003508A3003608A4004722C2
:101480002008A8002108A9002208AA0008002308B3
:1014900003194F2A220821042004031D572AA00102
:1014A000A101A2010800A30AA236A10CA00CFE30E3
:1014B00022050319652A532AA30AA00A0319A10ABF
:1014C0000319A20AA236A10CA00CFF3022050319B1
:1014D000722A5C2A02302302031C742AA303A0355B
:1014E000A10DA20DA11F6A2A231CA113A336230854
:1014F000A700A601A5012508A0042608A104270825
:10150000A2042408031DA21708002808AE00290819
:10151000AF002A08B00003102F0D300DB3002B08C8
:10152000AE002C08AF002D08B00003102F0D300DB9
:10153000B20033080319A82A32083302320803180C
:10154000B02AAE003308AE0219302E02031CAF2AB7
:101550002B08A8002C08A9002D08AA0008003208B2
:1015600003190800330832020318BE2A3308AE00FC
:101570003208AE0219302E02031808000630B100FE
:10158000AA1BB117AD1B3117A917AA01AC17AD01E2
:10159000320833020318E32AAB35AC0DAD0DB203AC
:1015A000320833060319DE2AB1033108073903195B
:1015B000DE2ACC2AAA36A90CA80CB30A33083206B4
:1015C0000319FD2ADA2A330832020318FD2AA83546
:1015D000A90DAA0DB303320833060319F92AB10382
:1015E000310807390319F92AE72AAD36AC0CAB0CE0
:1015F000B20A33083206031DF52AB11F082BFF304B
:10160000A806A906AA06A80A0319A90A0319AA0A7C
:10161000311F132BFF30AB06AC06AD06AB0A031926
:10162000AC0A0319AD0AB1012808AB072908AC3D83
:101630002A08AD3DAD1F272BFF30AB06AC06AD062B
:10164000AB0A0319AC0A0319AD0AB101B10A2B08A0
:10165000A0002C08A1002D08A2003308A300310827
:10166000A40047222008A8002108A9002208AA00F7
:1016700008003608350434040319402B8030B606C0
:101680003708A8003808A9003908AA003408AB00B8
:101690003508AC003608AD0085222808B4002908BA
:1016A000B5002A08B60008003408B8003508B900AB
:1016B0003608BA000310390D3A0DC0004008031D6A
:1016C000662BB401B501B601B70108003408B800B3
:1016D0003508B9003608BA001730BA36B90CB80C5C
:1016E000890B6D2B3808BB00B517B6013408BC0058
:1016F0003508BD003608BE008E30BF01C002C01FD5
:101700008D2B4008803A8F3E031C612BBF36BE0CE8
:10171000BD0CBC0CC00F862B9A2B1830400203184E
:10172000612B400803199A2BBC35BD0DBE0DBF0DB2
:10173000C003912B3B080319A82BBC09BD09BE09A6
:10174000BF09BC0A0319BD0A0319BE0A0319BF0A5F
:101750003F08B7003E08B6003D08B5003C08B4009D
:10176000080055302200BB001830BC01BD003030ED
:10177000BE000630BF01C000C100C201C301C401E8
:10178000C501C601C701C801C901CA01CB01CC010D
:10179000D101D201D301D401D501D601D701D8019D
:1017A0007D2722003C082300CF0022003D082300B3
:1017B000D00022003E082300D10022003F08230071
:1017C000D200D301D40197313F278B3122004E083C
:1017D0002300C80022004D082300C7002200500843
:1017E0002300CA0022004F082300C900CB01CC010E
:1017F000BE310B268B3123000230B801B80AB90084
:10180000BA01BA0ABB01BE31282E2000E7016708E1
:10181000A63E8600013087006708FA3E70258B31AE
:1018200081000630E70A6702031C072C2A278B3148
:101830002100A3002C262100A200A3317E238B319E
:101840002100A400E4268B312200B40053278B3101
:10185000230037030319462C98310E208B312200C8
:10186000B7010D1420000E18372C6400322C0E190D
:101870000C1F352C8E1C352C22000D10F43020004E
:10188000A4000130A5009E3181268B31FE3023005B
:101890003806031901002300380B522C0230390698
:1018A0000319BA2C0230B801B80AB90061278B318C
:1018B000BA2C0130C72C0230C72C0330C72C04309F
:1018C000C72C0530C72C230048082200CE00230077
:1018D00047082200CD0023004A082200D000230040
:1018E00049082200CF0023004F082200BC0023003B
:1018F00050082200BD00230051082200BE00230032
:1019000052082200BF007D2F2308003A0319632CE0
:10191000023A0319612C013A03195F2CC62C2100ED
:101920002208003A0319842C023A03195D2C013A6B
:1019300003195B2CC62C0630C72C0730C72C083087
:10194000C72C0930C72C2308003A0319632C023A2C
:101950000319A12C013A03199F2CC62C210022083F
:10196000003A0319A32C023A03199D2C013A0319DA
:101970009B2CC62C22003408013A0319AE2C033AE2
:1019800003198F2C013A0319592CC62C080020008A
:10199000A9002100C401C501C601C7012000290812
:1019A000A000C430A101A035A10DA035A10DA20158
:1019B000A20A9D31B3258B3101309F3190278B31A5
:1019C00001309F31B0278B3103309531D8258B31D1
:1019D000C6302000A000C43095315C258B31E83042
:1019E0002000A4000330A5009E3181268B310030F9
:1019F0009F3190278B3100309F31B0278B310130E0
:101A00009531D8258B31C6302000A000C4309531E7
:101A10005C258B31E8302000A4000330A5009E3106
:101A200081268B31DC2CB700B6012808B8002908C4
:101A3000B9003708B400B501B435B50DB435B50DEE
:101A4000B435B50D3608031D0800B1268B31A82624
:101A50008B31A030A000A1018E268B313508A1006A
:101A60003408A0008E268B31BA0128088600290888
:101A700087000108A000A1018E268B31A80A031956
:101A8000A90A0830BA0A3A02031C352DDD268B312B
:101A90002C30A2000030A300370855268B31B60148
:101AA000B60A3808A8003908A900BA013A082C3E3D
:101AB000860087013A08AA00AB01280784002B089A
:101AC000293D850000080106031DB6010830BA0A49
:101AD0003A02031C562D3808A8003908A900222D07
:101AE000A200B1268B31A8268B31A030A000A10125
:101AF0008E268B312208A000A1018E268B31BD26B7
:101B00008B31A1302000A000A1018E268B319626BA
:101B10008B31A300D526230808002C263030B600D0
:101B20000230B7009B30B800AC30B900A631452672
:101B30008B313030A1000230A200A63125268B3136
:101B400030302000B6000230B700B330B800A83003
:101B5000B900230048082000BB00230047082000EC
:101B6000BA00A63145268B313030A1000230A200E8
:101B7000A63125268B3130302000B6000230B70068
:101B8000CC30B800A830B90023004A082000BB00C0
:101B9000230049082000BA00A63145268B31303099
:101BA000A1000230A200A63125268B313030200062
:101BB000B6000230B7003730B800AC30B9002300AF
:101BC0004C082000BB0023004B082000BA00A631BF
:101BD00045268B313030A1000230A200A6312526E7
:101BE0008B3130302000B6000230B7001730B8001B
:101BF000A930B90023004E082000BB0023004D0887
:101C00002000BA00A63145268B313030A1000230C9
:101C1000A200A63125268B3106302000A000C73057
:101C2000A3313C238B312108D4002008D30030306D
:101C3000B6000230B7004930B800A830B9005408E7
:101C4000BB005308BA00A63145268B313030A100C5
:101C50000230A200A631252E2000C730B201A2001A
:101C60000130A300053055260630A000C730A3314F
:101C70003C238B312108B1002008B0002300470F1E
:101C8000432E0330502E2000310823004E06031D42
:101C90004D2E2000300823004D060319522E02302D
:101CA0002000B200200032080800A500090709073B
:101CB0000907A600B1268B31A8268B31A030A000E1
:101CC000A1018E268B312608A000A1018E268B3122
:101CD000BD268B31A1302000A000A1018E268B31C2
:101CE000A70196268B31A4002208860023088700CE
:101CF00024088100A0268B31A20A0319A30A073009
:101D0000A70A2702031C712E96268B31A4002208F5
:101D100086002308870024088100D52E9111200811
:101D200024009100200091190800922E240096159D
:101D30009619982E141C9A2E11082000A000080055
:101D40009111240096121616200091190800A42E55
:101D500020009111240016142000911DAC2E911129
:101D60000800A8268B31A030A000A1018E268B315F
:101D70002400161F08002000B12EC4268B31240039
:101D80009614961C0800C12E240014082000A00000
:101D90000430A005240016082000A1001F30A10572
:101DA0002008210403190800C42E9111240096165E
:101DB0001616200091190800D92E9111240016152D
:101DC000200091190800E02E20003B30B201A20053
:101DD0000130A300003055268B314330A200013082
:101DE000A300013055268B314B30A2000130A300F7
:101DF000023055268B315330A2000130A30003304E
:101E000055261E30A0003B30A3313C238B312108E6
:101E1000B1002008B00022003B0F102F03301D2F0F
:101E20002000310822005A06031D1A2F2000300816
:101E3000220059060319202F02302000B200272F5C
:101E400055303B060319272F2000B201B20A2000AB
:101E5000320808002000CF30B201A2000130A300F8
:101E6000043055260630A000CF30A3313C238B31FF
:101E70002108B1002008B00023004F0F412F03308C
:101E80004E2F2000310823005606031D4B2F200043
:101E90003008230055060319502F02302000B200ED
:101EA000200032080800B7302000A2000130A30053
:101EB000083055268B31BF30A2000130A300093015
:101EC000552E0E302000A000B730A3313C238B31BB
:101ED00021082300C600200020082300C500B730D9
:101EE0002000A8000130A900083013258B31BF3035
:101EF000A8000130A9000930132D570F822F580A6E
:101F00000319852FD70A0319D80A1E302000A00014
:101F10003B30A3313C238B3121082200DA00200022
:101F200020082200D9003B302000A8000130A90081
:101F3000003013258B314330A8000130A900013057
:101F400013258B314B30A8000130A9000230132536
:101F50008B315330A8000130A9000330132D173006
:101F6000840026308500D930FE000130FF00883122
:101F7000F1208F31F001F101F201F301F401F501DB
:101F8000E801E901A0308400003085002830FE001F
:101F90000030FF008831F1208F3120308400013083
:101FA00085004B30FE000030FF008831F1208F317A
:101FB000A0308400013085004530FE000030FF0075
:101FC0008831F1208F31203084000230850042308A
:101FD000FE000030FF008831F1201430EA000C30A0
:101FE000EB0021000430EE0022006430EB000030F2
:101FF000EC00E830ED000330EE00200090310328C3
:10200000FF3FFF3FFF3F21006330E701E70AE800A1
:10201000E901CE278B170B1722000D1400309F31DA
:10202000902790312100C401C501C601C7012200DB
:102030000D10C6302000A000C4305C259031210076
:102040003208031D252864001F283208B100031040
:1020500020000E1C03140030031801302100AF00D3
:10206000031020000E1D031400300318013021005E
:10207000B600031020000C1F0314003003180130B9
:102080002100AD00031020008E1C03140030031843
:1020900001302100A9002F080319872829080319F6
:1020A00087283608031D87282D08031D8728303010
:1020B000B401B40A2000B6000230B7002830B800DE
:1020C000A830B900A631452690313030A100023049
:1020D000A200A6312526903121002F08031984285B
:1020E0006400031020000E1C03140030031801309C
:1020F0002100AF00031020008E1C031400300318D1
:1021000001302100A9006C282908031D70288C319A
:10211000052490316627903121003408031DA7283B
:10212000ED0123002B0821006D020318A3280B30BA
:10213000DF006230DE00DE0B9B28DF0B9B280000F7
:102140002100ED0A91285230B231AA22903100309C
:102150008831FD20903121003308B531422590317E
:1021600064000030B5314225903121003A08EB007F
:102170003408031DBE28B2311022903121003908E5
:10218000031905293903031DD428A43108249031EB
:10219000A031702090318D318D259031A1312A21CF
:1021A0009031A23102229031023021003906031D04
:1021B000DF28A0311420903163302100E800033083
:1021C0003906031D03290130B306330830300319E3
:1021D000F1282000B6000230B7008230B800AC30E1
:1021E000F8282000B6000230B7009930B800A830B7
:1021F000B900A631452690313030A1000230A2004E
:10220000A631252690312100B90122003608031994
:102210000D29B6018F317D27903122004008210021
:10222000680603192F29220040082100E800B001A8
:10223000B00A22000030B601B60A9F3190279031D3
:102240002100C601C701C401C5013A082000A00051
:10225000C430A101A201A20A9D31B3259031210011
:1022600031083206031936293208B1009E318F2613
:102270009031F92C21003008023003194929B001AE
:10228000D8259031C6302000A000C4305C259031A4
:10229000023021002E06031D502905302200C00007
:1022A000033021003506031D5A2922004008C100D1
:1022B0000730C00021002B0803196F292C08031DCB
:1022C00070290130AC01AC0A2200BF063F08230090
:1022D000D2003F2790312200B601B60A7029AC0126
:1022E0002100320BB72922003F08031D9729210046
:1022F0003A0822003E02031887292000E301E30A7E
:10230000E401E40A22003E08B4311E249031220088
:102310003E0821003A020318082D2000E301E30AD9
:10232000E401E40A22003E08F3259031082D210043
:102330003A0822003C020318A7292000E301E30A1F
:10234000E401E40A22003C08B4311E24903122004A
:102350003C0821003A020318082D2000E301E30A9B
:10236000E401E40A22003C08F3259031082D0230F4
:102370003206031D082D22003F08031DDF2921001E
:102380003A0822003C020318CF2920000230E30162
:10239000E30AE40022003C08B4311E2490312200FC
:1023A0003C0821003A020318082D20000230E30106
:1023B000E30AE40022003C08F3259031082D2100B7
:1023C0003A0822003E020318EF2920000230E30100
:1023D000E30AE40022003E08B4311E2490312200BA
:1023E0003E0821003A020318082D20000230E301C4
:1023F000E30AE40022003E08F3259031082D210075
:10240000300803190E2A0130B0019F31B0279031F6
:10241000C6302000A000C4305C2590312200420864
:102420000319472AA227903120082104031D472AB7
:10243000F430A0000130A100BD31CB259031013036
:102440002100E70667080319322A2200420B2A2AD4
:1024500001302B2A0230D82590312100C401C5015A
:102460003A08392A0330D8252100C401C5012200C9
:1024700043082000A000C430A101A201A20A9D319E
:10248000B3259031C630A000C4305C2590310230B5
:1024900021002E06031D642A04302200C0000130F2
:1024A000C201D8252100C401C5013A082000A000BE
:1024B000C430A101A201A20A9D31B3259031C630DA
:1024C000A000C4305C259031033021003506031D87
:1024D000812A22004008C1000730C00000309F312F
:1024E000B02790310130D8252100C401C5013A0838
:1024F0002000A000C430A101A201A20A9D31B32591
:10250000903121002A080319B92A3A080319B92A77
:1025100022000130C201D8252100C401C5013A08BA
:102520002000A000C430A101A201A20A9D31B32560
:102530009031C630A000C4305C2520006330E30138
:10254000E30AE40021003A08FF3EB4311E24903132
:10255000C401C5013A082000A000C430A101A201B5
:10256000A20A9D31B3259031C630A000C4305C254D
:102570009031210028080319082D30303A02031841
:10258000082D22000130C201D8252100C401C50157
:102590003A082000A000C430A101A201A20A9D3186
:1025A000B3259031C630A000C4305C2590312000A6
:1025B0006330E301E30AE40021003A08013EF32519
:1025C000C401C5013A082000A000C430A101A20145
:1025D000A20A9D31B3259031C630A000C4305C25DD
:1025E0009031082D210030080319172B0130B0015C
:1025F0009F319027903121003A082000A000C4307C
:10260000A101A201A20A9D31B3259031C630A000DC
:10261000C4305C2521002C30EA01EA0A2000A00029
:102620000130A100BD31D52590312100E901B0274D
:10263000903120082104031D202B06302200C00009
:10264000023021003506031DC72BE901E90A6A0B98
:102650005B2BED0105306D020318552BC630C4010C
:10266000C5012000A000C4305C2564302000A40017
:10267000A5019E318126903121003A082000A0005A
:10268000C430A101A201A20A9D31B3259031C63008
:10269000A000C4305C2564302000A400A5019E3158
:1026A000812690312100ED0A2A2B3A08EC000230F5
:1026B000EA00E601C72B3A086C0603199B2B6C084D
:1026C0002200BC0021003A082200BE003C08230082
:1026D000CF0022003E082300D1003F279031C230B6
:1026E0002327903121000530C401C501ED016D02A1
:1026F0000318972BC6302000A000C2305C25F430B0
:102700002000A4000130A5009E3181269031C63002
:10271000A000C4305C25F4302000A4000130A500E6
:102720009E318126903121000530ED0A772B06304D
:102730002200C000C72B0230E60A6606031DC72B25
:10274000C230232790312100C401C501ED010530BD
:102750006D020318972BC6302000A000C2305C2504
:10276000F4302000A4000130A5009E318126903174
:10277000C630A000C4305C25F4302000A400013035
:10278000A5009E31812690312100ED0AA72B023051
:1027900021002E06031DF92BC23023279031210082
:1027A000C401C50169080319F62BED0105306D025E
:1027B0000318F62BC6302000A000C2305C25F43090
:1027C0002000A4000130A5009E3181269031C63042
:1027D000A000C4305C25F4302000A4000130A50026
:1027E0009E31812690312100ED0AD62B0630220041
:1027F000C00021002B080319342CE901E90A2C0838
:10280000031D352CAC01AC0A22003030BC01BE00E7
:10281000C230232790312100ED0105306D020318ED
:102820002D2CC6302000A000C2305C25F4302000E2
:10283000A4000130A5009E3181269031C630A00051
:10284000C4305C25F4302000A4000130A5009E3186
:10285000812690312100ED0A0D2C06302200C000A7
:102860009F31E7279031352CAC012A080319962CAB
:10287000E901E90A3A080319082D6A0B5C2C2000CB
:102880006330E301E30AE40021003A08FF3EB4317B
:102890001E249031C401C5013A082000A000C430B4
:1028A000A101A201A20A9D31B3259031C630A0003A
:1028B000C4305C259031082D6C08013EDE000030EC
:1028C00003180130DF005F08803AE00080306002CA
:1028D000031D6C2C3A085E020318082D200063309B
:1028E000E301E30AE40021003A08FF3EB4311E246C
:1028F0009031C401C5013A082000A000C430A101F4
:10290000A201A20A9D31B325903121006C0820005C
:10291000A000C430A101A201A20A9D31B3259031CB
:10292000C630A000C4305C259031082D280803195A
:10293000082D3030E901E90A3A020318082D6A0B24
:10294000BC2C20006330E301E30AE40021003A08D4
:10295000013EF325C401C5013A082000A000C4309F
:10296000A101A201A20A9D31B3259031C630A00079
:10297000C4305C259031082D20006330E301E30A68
:10298000E40021003A08013EF325C401C5016C08AA
:102990002000A000C430A101A201A20A9D31B325EC
:1029A000903121003A082000A000C430A101A2010A
:1029B000A20A9D31B3259031C630A000C4305C25F9
:1029C0009031082D2100300803300319F12CB0019B
:1029D000D8259031C6302000A000C4305C2590314D
:1029E000033021003506031D082D22004108C000D8
:1029F000082D22004008043A03193A29013A031924
:102A0000F22A033A0319FF29013A0319E22C082D8F
:102A100021006B083A020318302D6B08DE00DF013D
:102A20005F08E1003A085E02E000031CE103E200F7
:102A30006108E3000030E31BFF30E400E5006208BA
:102A40002200C907210063082200CA3D2100640852
:102A50002200CB3D210065082200CC3DB601B60A1C
:102A600021003A086B020318582D3A08DE00DF01F6
:102A70005F08E1006B085E02E000031CE103E20076
:102A80006108E3000030E31BFF30E400E50062086A
:102A90002200C907210063082200CA3D2100640802
:102AA0002200CB3D210065082200CC3DB601B60ACC
:102AB0009F31E7279031B028A80086008701403F6A
:102AC000A300413FA40020088600403FA100413FF1
:102AD000A2002108A3042208A404A501A601A501BF
:102AE0008030A600083024009500E0303D00A305AA
:102AF000A4053C00A001A10121000E128E112200AC
:102B00008E1106302000A2003030A100A10B862DCE
:102B1000A20B862D00002000A70110302702031809
:102B2000B82D25082305A10026082405A2002104AC
:102B300003199D2D22000E169F2D22000E121A3011
:102B40002000A100A10BA22D000022008E1506304E
:102B50002000A2003030A100A10BAC2DA20BAC2DA7
:102B6000000022008E112000A636A50CA70A8D2D8C
:102B700022000E128E161A302000A100A10BBE2DCD
:102B8000000022008E123D002308E0391038A30017
:102B90002408E0391138A40013303C00A0001430A0
:102BA000A10021000E168E15283024009500080083
:102BB0002000A000E72D21004610C61008002100CB
:102BC0004610C614080021004614C610080020084C
:102BD000013A0319DB2D033A0319DF2D013A0319DA
:102BE000E32DF22D08002100C90020006908210012
:102BF000CB00200068082100CA00C801CE013308BC
:102C0000B5314225903121003A08CC00CD01490868
:102C10003A020318182F22000C128C1610302000D4
:102C2000A0002730A1005C279031210049083A021A
:102C30000318132F64000030B53142259031BF27AF
:102C4000903120082104031D282E2100CE01CE0A38
:102C50002000690821004B02031D322E2000680865
:102C600021004A020318472E4A0820006802E500A6
:102C700021004B082000693BE600003066021A3054
:102C800003196502031C472E02302100CE002100EB
:102C90004E0803197E2E22008C120630C00021003F
:102CA0004E082200C200023021003A023A08031CFA
:102CB0005B2EFE3E5C2E023E2200C30021004E0B26
:102CC0006C2E2200530F672E540A03196C2ED30A60
:102CD0000319D40AB601B60A023021004E06031DBC
:102CE000162F2200470F772E480A0319162FC70AFE
:102CF0000319C80A2200B601B60A162F9E318F2684
:102D00009031033021003506031D8E2E22008C12D7
:102D10004008C1000730C0009F31E72F7208031937
:102D20009F2E22008C12720803199B2E64009E3184
:102D30008F269031932E05302200C000162F2B08CD
:102D40000319BA2E200064030319AA2E0230640668
:102D5000031DBA2E21002C08031DBC2EAC01AC0AA9
:102D600022008C120130BF063F082300D2003F270B
:102D700090317A2E2100AC012000640BC72E023066
:102D800021003206031DC72E22008C12162F02309E
:102D900020006406031DD02E2100320BD02EC42E3D
:102DA00021003A082000E500E60121004D0820003E
:102DB0006606031DDF2E21004C082000650603195E
:102DC000152E10302100C80A4802031C152E3A089F
:102DD0002000E500E601660821004D02031DF42EE7
:102DE0002000650821004C020318152E1030C80180
:102DF0002000A0002730A1005C2721003A08CC0069
:102E0000CD01C401C5013A082000A000C430A101D1
:102E1000A201A20A9D31B3259031C630A000C43072
:102E20005C259031152E2200A71B1A2E22008C1231
:102E30002100330803191F2F0230B53142250A3013
:102E40002100B80008002000A6008600003087019D
:102E5000C03FC13F22003C082000A7002708A00077
:102E6000A101A201A20A26089D31B32590312200BA
:102E70003E082000270603190800A70A2E2F530F2B
:102E8000442F540A0319472FD30A0319D40A0630D2
:102E90002000A000CF30A3313C2321082300D6001E
:102EA000200020082300D500CF302000A8000130EA
:102EB000A90004308D31132D8B1221082200A500AA
:102EC000200020082200A4008B16080021000130F9
:102ED000C601C701D82500309F31B027903100309E
:102EE0009F31902790312000A90105302902031855
:102EF000080021000830C401C5012000A000C43032
:102F0000A101A201A20A9D31B3259031C630A000D3
:102F1000C4305C25FA302000A400A5019E31812632
:102F200090312100C630C401C5012000A000C4308A
:102F30005C25FA302000A400A5019E318126903145
:102F4000A90A752F8B1221082000A3002200200857
:102F50002000A2008B162308A1002208A000080070
:102F60008B1222002B082000A30022002A08200038
:102F7000A2008B162308A1002208A00008008B12D3
:102F8000220025082000A300220024082000A2001F
:102F90008B162308A1002208A0000800F927AD31F4
:102FA00088259031A03101209031E4279031DC2731
:102FB000BD31C7259831012801309D0090309E0019
:102FC0009F019B019C0108009112111248302300BF
:102FD0009F0090309D0026309E0040309B000330C3
:102FE0009C009A01990121001030A601A5009116BC
:102FF0000800703099009A0198011A1B0800FD2FF3
:10300000FF3F21001508C03916389500C230200056
:1030100095002100BF000B118B1608002100DB0179
:10302000D101D10AD301D30AD401D40AD501D50ADA
:10303000D601D60AD201D20AD701D70AD801D901BE
:103040002200B701B70A20000C1F8E18502821005B
:10305000DC01DD0100305D020B3003195C02031856
:1030600039285C08EB2798312100DC0A0319DD0AB6
:103070002A288F312A2798312100A3008E312C264F
:1030800098312100A200A3317E2398312100A400B1
:103090008E31E42698312200B4008F3153279831C5
:1030A000053021002406031D2B29C401C501C601DA
:1030B000C70122005B08031D65282000C430A00161
:1030C000A101A201A20AB325983122005C08031DC8
:1030D000722804302000A000C430A101A201A20A7D
:1030E000B325983122005D08031D7F280830200099
:1030F000A000C430A101A201A20AB3259831220088
:103100005E08031D8C280C302000A000C430A101F3
:10311000A201A20AB325983122005F08031D992855
:1031200010302000A000C430A101A201A20AB325E2
:10313000983122006008031DA62814302000A0004A
:10314000C430A101A201A20AB3259831220061086E
:10315000031DB32818302000A000C430A101A20133
:10316000A20AB325983122006208031DC0281C3032
:103170002000A000C430A101A201A20AB325983109
:1031800022006308031DCD2820302000A000C43099
:10319000A101A201A20AB325983122006408031DEF
:1031A000DA2824302000A000C430A101A201A20A24
:1031B000B325983122006508031DE6282830200039
:1031C000A000C430A101A201A20AB325C63020008C
:1031D000A000C43095315C2598312100DA01DA0A6B
:1031E0005A0803196D2964008F2698312100280898
:1031F00003190C29DA01DC01DD0100305D020B301E
:1032000003195C0203180C295C08EB279831210094
:10321000DC0A0319DD0AFD285A08031928290130A0
:10322000DB065B0803191629033017290130953195
:10323000D8259831C6302000A000C43095315C25D7
:103240009831F4302000A4000130A5008126983187
:10325000E7279831F02804302406031D6D29023039
:10326000C401C501C601C7019531D8259831210097
:10327000DA01DA0A21005A0803196D2964008F2641
:103280009831720803194D2921002A0803194D2984
:103290002300B701B70A8F31612F21005A080319A3
:1032A0003A29E72798310130DB065B0803195A29D0
:1032B00002305B2901309531D8259831C630200085
:1032C000A000C43095315C259831F4302000A40072
:1032D0000130A500812698313A2922000130DB0116
:1032E000DC01DD01DE01DF01E001E101E201E301DA
:1032F000E401E5019531D82598310030B0279831A7
:10330000003090272100C630C401C501C601C701A5
:103310002000A000C43095315C25983101309B27F6
:1033200098312C302000A4000130A500812698316E
:103330002100320BC2292200DC01DC0A8C120C169F
:1033400002309B279831D0302000A0000730A10028
:10335000DD2798312100B901B429CE279831200802
:1033600021040319B8296400210039080319AD2983
:10337000033021003906031DC2292200DD01DD0AC8
:10338000DB01DB0AB8302000A0000B30A100DD27F4
:103390009831D0290230210032060319D629640061
:1033A000CE27983120082104031DCA2902302100AC
:1033B0003206031D002A2200DE01DE0A0C128C16E2
:1033C00004309B2798312100B901D0302000A000A3
:1033D0000730A100DD279831F429CE279831200845
:1033E00021040319F8296400210039080319ED2983
:1033F000053021003906031D002A2200DF01DF0A03
:1034000022000C128C122100B9012200E301E30A10
:103410002100DC01DD0100305D02083003195C028F
:1034200003181D2A5C08C83E860087015C08013E1F
:103430008100DC0A0319DD0A0B2AC8302000A8002D
:103440000030A9000A308D3113259831C830A20010
:103450000030A3000A308E31552698312100DC015E
:10346000DD0100305D02083003195C020318532AA5
:103470005C08013E2000E500003021005D3D200099
:10348000E60021005C08C83E860087010108200094
:103490006506660403194E2A2200E3012100DC0AB6
:1034A0000319DD0A312A0A30EB27B6311B26983181
:1034B0002200E1002100C630C401C501C601C701D8
:1034C0002000A000C43095315C2598310A302100DD
:1034D000B8005508031D742A5608031D742A5308A2
:1034E000031954080319272B38080319272B6400E4
:1034F0008F26983121002A080319A52AC401C50185
:10350000C601C70122003030BC01BE00C430973173
:1035100023279831C630A000C43095315C259831FE
:1035200021002A080319982A64008F269831902ACE
:10353000C630C401C501C601C7012000A000C430C7
:1035400095315C2598312100D50128080319CF2A2F
:10355000C401C501C601C70122003030BC01BE0054
:10356000C430973123279831C630A000C43095313C
:103570005C259831210028080319C22A64008F268F
:103580009831BA2AC630C401C501C601C70120005E
:10359000A000C43095315C2598312100D601720815
:1035A0000319FD2A0330C401C5019531D82598318E
:1035B0000130902798310130B027C6302000A0009C
:1035C000C43095315C25983172080319EB2A6400E8
:1035D0008F269831E42A01309531D8259831003072
:1035E000902798310030B027C6302000A000C430AA
:1035F00095315C2598312100D30174080319212BE2
:103600000230C401C5019531D8259831C63020005B
:10361000A000C43095315C25983174080319142B2F
:1036200064008F2698310D2B01309531D8259831C3
:10363000C6302000A000C43095315C2598312100AF
:10364000D401E7279831692A64008F269831210038
:103650002A08031D242B2808031D242B7208031D90
:10366000242B7408031D242B5508031D3F2B5608DB
:10367000031D3F2B5308031954080319422B220042
:10368000E001452B2200E001E00A2100C630C40120
:10369000C501C601C7012000A000C43095315C25DA
:1036A000983122000A30E2012100B800F4302000F5
:1036B000A4000130A500812698318F2698316A2B0D
:1036C00064008F26983121002A08031DD2012808A2
:1036D000031DD701210052080319732B5708031D3E
:1036E0003808031D602B5708031D7A2B2200E201C6
:1036F000E20A7C2B2200E2012100C630C401C50190
:10370000C601C7012000A000C43095315C25983166
:103710002200E401E5015B080319A52B5C080319ED
:10372000A52B5D080319A52B5E080319A52B5F08BF
:103730000319A52B60080319A52B61080319A52BF4
:103740006208031D6308031DA82B2100DB01922CD6
:1037500021000130C401C5019531D82598310030D0
:10376000B027C6302000A000C43095315C259831C8
:1037700021005808031D8F2C64000A302000A4008B
:10378000A5018126983121001430D00A5006031D6E
:10379000CF2B0130D001D106510890279831063047
:1037A00021003906031D2E2C5808031D2E2CB901AB
:1037B0000A302000A2002030A301A400B7318A27DC
:1037C000983123082200D000200022082200CF00D8
:1037D00030302000B6000230B7001C30B800AD30E9
:1037E000B900220050082000BB0022004F08200032
:1037F000BA00A631452698313030A1000230A2002F
:10380000A6312526983105305002483003194F0261
:103810000730031C2F2C5002863003194F02031867
:103820002E2C21000130C401C501902702309531B2
:10383000D8259831C6302000A000C43095315C25D1
:1038400098312200E401E40A2100E830D801D80AC6
:103850002000A4000330A500812698310730210004
:103860003906031D8C2C5908031D8C2CB9010A3014
:103870002000A2002030A301A400B7318A2798318C
:1038800023082200CE00200022082200CD00303084
:103890002000B6000230B7000D30B800AD30B900DE
:1038A00022004E082000BB0022004D082000BA0074
:1038B000A631452698313030A1000230A200A63151
:1038C0002526983100304E027B3003194D02031C2F
:1038D0008C2C02304E02B93003194D0203188C2C87
:1038E00021000130C401C501902798310130B02773
:1038F000C6302000A000C43095315C2598312200EC
:10390000E501E50A2100E830D901D90A2000A40028
:103910000330A500812698312100B901B82B590840
:103920000319BC2BE8302000A4000330A500812639
:103930009831003090279831210058080319B12C94
:1039400059080319B12CC630C401C501C601C7010D
:103950002000A000C43095315C2598312100DB01A6
:10396000DB0A08309B27983164302000A400A501B1
:103970008126983108309B27983164302000A400BC
:10398000A5018126983108309B27983121005B08DA
:10399000031D622DC401C501C601C70122005B08D9
:1039A000031DDA2C2000C430A001A101A201A20A4B
:1039B000B325983122005C08031DE72C0430200059
:1039C000A000C430A101A201A20AB32598312200AF
:1039D0005D08031DF42C08302000A000C430A101B4
:1039E000A201A20AB325983122005E08031D012D11
:1039F0000C302000A000C430A101A201A20AB3250E
:103A0000983122005F08031D0E2D10302000A00009
:103A1000C430A101A201A20AB32598312200600896
:103A2000031D1B2D14302000A000C430A101A201F1
:103A3000A20AB325983122006108031D282D1830F1
:103A40002000A000C430A101A201A20AB325983130
:103A500022006208031D352D1C302000A000C43058
:103A6000A101A201A20AB325983122006308031D17
:103A7000422D20302000A000C430A101A201A20AE2
:103A8000B325983122006408031D4F2D24302000F7
:103A9000A000C430A101A201A20AB32598312200DE
:103AA0006508031D5B2D28302000A000C430A10153
:103AB000A201A20AB325C6302000A000C43095316F
:103AC0005C2598318B31B12398312300B7018F31B8
:103AD000612798318F312A2798318E312C269831E1
:103AE000A3317E2398318E31E42698318F315327CC
:103AF0009831A43108249831A031702098318D314B
:103B00008D259831A23102229831A1312A21983194
:103B1000640021005B0803198F2D0230902D0330C3
:103B20009531D8259831C6302000A000C430953199
:103B30005C259831F4302000A4000130A5008126D6
:103B400001309531D8259831C6302000A000C4300E
:103B500095315C259831F4302000A4000130A50097
:103B600081269831882DA30086008701403FA4005C
:103B7000413FA5006A2E22080319C02DA417792EF3
:103B8000A413792E22080319C72DA417CC2DA41332
:103B9000CE2D22080319CE2D2417792E2413792E29
:103BA00022080319D52D2417DA2D2413DC2D220821
:103BB0000319DC2DA416792EA412792E22080319DC
:103BC000E32DA416E82DA412EA2D22080319EA2DEC
:103BD0002416792E2412792E22080319F12D241689
:103BE000F62D2412F82D22080319F82DA415792E8C
:103BF000A411792E22080319FF2DA415042EA41157
:103C0000062E22080319062E2415792E2411792E4A
:103C1000220803190D2E2415122E2411142E220809
:103C20000319142E2517792E2513792E220803192E
:103C30001B2E2517202E2513222E22080319222E93
:103C4000A516792EA512792E22080319292EA5165C
:103C50002E2EA512302E22080319302E2516792E6D
:103C60002512792E22080319372E25163C2E2512EF
:103C70003E2E220803193E2EA515792EA511792E68
:103C800022080319452EA5154A2EA5114C2E2208EF
:103C900003194C2E2515792E2511792E220803198A
:103CA000532E2515582E25115A2E220803195A2E47
:103CB000A514792EA510792E22080319612EA514BA
:103CC000662EA510682E22080319682E2514792E59
:103CD0002510792E2108003A03196F2E792E20081D
:103CE0008400313004020318792EB8310435003EC7
:103CF00082002308860087012408C03F2508C13FB1
:103D000008002508A1002408A000DD279831CE274F
:103D1000983120082104031908006400872E03103D
:103D200020000E1C03140030031801302100AF00E6
:103D3000031020000E1D0314003003180130210071
:103D4000B600031020000C1F0314003003180130CC
:103D50002100AD00031020008E1C03140030031856
:103D600001302100A9002F080319C32E7208031D7A
:103D7000C32EB830F201F20A2000A0000B30A100DF
:103D8000C7279831D82E2F080319D82E7208031987
:103D9000D82EBB27983120082104031DD82E2200DD
:103DA0003808031DD82E0330B801B80A2100AE0030
:103DB00021002F08031DEF2E72080319EF2EBB27D9
:103DC0009831200821040319E92E02302100AE00A9
:103DD000EB2E2100AE01F2012200B80108003608E6
:103DE0000319FF2E7408031DFF2EB830F401F40AE6
:103DF0002000A0000B30A100C7279831142F3608EF
:103E00000319142F74080319142FBB2798312008A5
:103E10002104031D142F22003908031D142F033021
:103E2000B901B90A2100B50021003608031D2B2F66
:103E3000740803192B2FBB2798312008210403197C
:103E4000252F02302100B500272F2100B501F401F4
:103E50002200B90108002D0803193E2F2908031973
:103E60003E2F2B08031D3F2FB830AB01AB0AAA0130
:103E7000A8012000A0000B30A100C72FAB012D0826
:103E80000319522F2A08031D522F2B08031D522FEE
:103E9000B830AA01AA0A2000A0000B30A100C72751
:103EA00098315A2F2D0803195A2F2A0803195A2F0F
:103EB000BB27983121002D08031D622F2A08031902
:103EC000622FAA0129080319752F2808031D752FD1
:103ED0002B08031D752FB830A801A80A2000A000E8
:103EE0000B30A100C7279831852F29080319852F8A
:103EF00028080319852F70087104031D852F2200DF
:103F00003508031D852FB501B50A21002908031DB9
:103F10000800280803190800A8012200B5010800BC
:103F20002000A00020080319982F22008C130800FD
:103F300022008C1708002000DA005330B600003051
:103F4000B7007E30B800AD30B9005A08BA00BB01E6
:103F5000A63145265330A1000030A200A631252EFF
:103F60002000A00020080319B82F2100C71708005F
:103F70002100C71308008B1271082000A3007008ED
:103F8000A2008B162308A1002208A00008008B12B3
:103F90002108F1002008F0008B1608008B12220087
:103FA00023082000A300220022082000A2008B1674
:103FB0002308A1002208A00008008B12210822007B
:103FC000A300200020082200A2008B160800210078
:103FD000AE01B50108002000C300C40144083B3E07
:103FE0008600FF30870181000830C40A4402031CA8
:103FF000EE2F3B30A8000030A90043088D31132D6F
:10400000FF3FE1302300AD00AC00AE142E10B00134
:10401000240094012830950097014F309200200031
:104020009111210091110800AD31E225A03130300D
:10403000B6000230B7005730B800AD30B9002200EA
:104040004E082000BB0022004D082000BA00452683
:10405000A0313030A1000230A2002526A03130303E
:104060002000B6000230B7005730B800AD30B900BC
:10407000220050082000BB0022004F082000BA0098
:104080004526A0313030A1000230A20025268F3114
:104090007D27A03122004E082300C80022004D08D1
:1040A0002300C700220050082300CA0022004F0846
:1040B0002300C900BE310B26A0318E31E426A03189
:1040C0000824A03170208D318D25A0310222A0312D
:1040D0002A2100308831FD20A0310130B531422D38
:1040E0008F312A27A0313030B6000230B7003A3085
:1040F000B800AD30B9004526A0313030A100023003
:10410000A2002526A03130302000B6000230B700D2
:104110003030B800A930B90023004F082000BA00A1
:10412000BB014526A0313030A1000230A200252677
:10413000A03130302000B6000230B700E530B800C2
:10414000A830B900230050082000BA00BB01452662
:10415000A0313030A1000230A2002526A03130303D
:104160002000B6000230B700C630B800A930B90050
:10417000230051082000BA00BB014526A031303091
:10418000A1000230A2002526A03130302000B60068
:104190000230B7008830B800AB30B90023005208B5
:1041A0002000BA00BB014526A0313030A10002300A
:1041B000A2002526A03130302000B6000230B70022
:1041C0003730B800AC30B900230054082000BB00E1
:1041D000230053082000BA004526A0313030A1004A
:1041E0000230A2002526A03130302000B600023077
:1041F000B7001730B800A930B900230056082000D6
:10420000BB00230055082000BA004526A0313030FD
:10421000A1000230A2002526A03106302000A00017
:10422000CF303C23A0312108D4002008D300303007
:10423000B6000230B7004930B800A830B9005408C1
:10424000BB005308BA004526A0313030A10002302F
:10425000A200252E8F315327A0313030B600023016
:10426000B700D830B800AC30B9004526A0313030A6
:10427000A1000230A2002526A03130302000B60077
:104280000230B7001E30B800AC30B9002300370848
:104290002000BA00BB014526A0313030A100023019
:1042A000A2002526A03130302000B6000230B70031
:1042B0005C30B800AA30B900230038082000BA00EA
:1042C000BB014526A0313030A1000230A2002526D6
:1042D000A03130302000B6000230B7002A30B800DC
:1042E000AA30B900230039082000BA00BB014526D6
:1042F000A0313030A1000230A2002526A03130309C
:104300002000B6000230B7002430B800AB30B9004E
:1043100023003A082000BA00BB014526A031303006
:10432000A1000230A2002526A03130302000B600C6
:104330000230B7000B30B800AB30B90023003B08A7
:104340002000BA00BB014526A0313030A100023068
:10435000A2002526A03130302000B6000230B70080
:10436000AD30B800A930B90023003C082000BA00E5
:10437000BB014526A0313030A1000230A200252625
:10438000A03130302000B6000230B7006230B800F3
:10439000A930B90023003D082000BA00BB01452622
:1043A000A0313030A1000230A2002526A0313030EB
:1043B0002000B6000230B7007530B800AA30B9004E
:1043C00023003E082000BA00BB014526A031303052
:1043D000A1000230A2002526A03130302000B60016
:1043E0000230B7004330B800AA30B90023003F08BC
:1043F0002000BA00BB014526A0313030A1000230B8
:10440000A200252E7E23A0313030B6000230B70046
:10441000C530B800AC30B9004526A0313030A1001D
:104420000230A2002526A03130302000B600023034
:10443000B700F830B800A930B90022005B082000AE
:10444000BA00BB014526A0313030A1000230A200E5
:104450002526A03130302000B6000230B7003D30B4
:10446000B800AB30B90022005C082000BA00BB01E4
:104470004526A0313030A1000230A2002526A0310F
:1044800030302000B6000230B7005630B800AB30F4
:10449000B90022005D082000BA00BB014526A0310A
:1044A0003030A1000230A2002526A031303020009B
:1044B000B6000230B700A130B800AB30B90022001E
:1044C0005E082000BA00BB014526A0313030A100B3
:1044D0000230A2002526A03130302000B600023084
:1044E000B700BA30B800AB30B90022005F08200036
:1044F000BA00BB014526A0313030A1000230A20035
:104500002526A03130302000B6000230B700F2304E
:10451000B800AA30B900220060082000BA00BB0130
:104520004526A0313030A1000230A2002526A0315E
:1045300030302000B6000230B700FE30B800A8309E
:10454000B900220061082000BA00BB014526A03155
:104550003030A1000230A2002526A03130302000EA
:10456000B6000230B7001130B800AA30B9002200FE
:1045700062082000BA00BB014526A0313030A100FE
:104580000230A2002526A03130302000B6000230D3
:10459000B700D930B800AA30B90022006308200063
:1045A000BA00BB014526A0313030A1000230A20084
:1045B0002526A03130302000B6000230B700D330BD
:1045C000B800AB30B900220064082000BA00BB017B
:1045D0004526A0313030A1000230A2002526A031AE
:1045E00030302000B6000230B700C030B800AA302A
:1045F000B900220065082000BA00BB014526A031A1
:104600003030A1000230A2002526A0313030200039
:10461000B6000230B7001730B800A930B900220048
:104620006A082000BB00220069082000BA00452665
:10463000A0313030A1000230A2002526A0310E307A
:104640002000A0005B303C23A0312108D4002008CA
:10465000D3003030B6000230B7004930B800A8307F
:10466000B9005408BB005308BA004526A0313030C9
:10467000A1000230A200252EAB00AC01AD01AE01BD
:10468000AF01AA0120082A020318562B2B08860026
:10469000013087000108AC0701300318AD0703188B
:1046A000AE070318AF07AB0AAA0A422B2C08A200D8
:1046B0002D08A300A401A5012E08A6002F08A7001D
:1046C000A801A9012608A2072708A33D2808A43DA0
:1046D0002908A53D2508AF002408AE002308AD0039
:1046E0002208AC002E08AC072F08AD3D0030AE3DCF
:1046F000AF3D2C09A0002D09A100080020005B306F
:10470000B201A2000130A30006308E315526A0313F
:104710006330A2000130A30007308E315526A0314E
:104720000E30A0005B303C23A0312108B1002008EE
:10473000B00022005B0A0319BA2B5C0A0319BA2BDA
:104740005D0A0319BA2B5E0A0319BA2B5F0A031913
:10475000BA2B600A0319BA2B610A0319BA2B620A31
:104760000319BA2B630A0319BA2B640A0319BA2B6B
:10477000650FBC2B0330032C2000310822006A0691
:10478000031DC62B20003008220069060319CA2B1E
:104790000230032C5B080319EA2B5C080319EA2B8F
:1047A0005D080319EA2B5E080319EA2B5F08031959
:1047B000EA2B60080319EA2B61080319EA2B620847
:1047C0000319EA2B63080319EA2B6408031D650823
:1047D000031DEC2B0530032C5B0B052C5C0B052C0F
:1047E0005D0B052C5E0B052C5F0B052C600B052C5F
:1047F000610B052C620B052C630B052C640B052C3F
:10480000650B052C04302000B2002000320808009F
:104810008E31E426A0313030B6000230B700EB30E4
:10482000B800AC30B9000230BA01BA0ABB01BC0012
:10483000BD014526A0313030A1000230A20025265E
:10484000A03130302000B6000230B7002B30B80065
:10485000AD30B9004526A0313030A1000230A200B1
:104860002526A03130302000B6000230B700B0302D
:10487000B800AC30B9004526A0313030A10002307C
:10488000A2002526A0312300370B4B2C0230B53176
:104890004225A0315C2C30302000B6000230B70039
:1048A0006130B800A830B9004526A0313030A100F1
:1048B0000230A2002526A03130302000B6000230A0
:1048C000B7009430B800A930B90022003B0820009E
:1048D000BA00BB014526A0313030A1000230A20051
:1048E0002526A03130302000B6000230B70030302D
:1048F000B800A930B90022003C082000BA00BB0172
:104900004526A0313030A1000230A2002526A0317A
:1049100030302000B6000230B700E530B800A830D3
:10492000B90022003D082000BA00BB014526A03195
:104930003030A1000230A2002526A0313030200006
:10494000B6000230B700C630B800A930B900220066
:104950003E082000BA00BB014526A0313030A1003E
:104960000230A2002526A03130302000B6000230EF
:10497000B7008830B800AB30B90022003F082000F3
:10498000BA00BB014526A0313030A1000230A200A0
:104990002526A03130302000B6000230B7006F303D
:1049A000B800AB30B900220040082000BA00BB01BB
:1049B0004526A0313030A1000230A2002526A031CA
:1049C00030302000B6000230B7000530B800AC30FF
:1049D000B900220041082000BA00BB014526A031E1
:1049E0003030A1000230A2002526A0313030200056
:1049F000B6000230B7007B30B800A930B900220001
:104A000042082000BA00BB014526A0313030A10089
:104A10000230A2002526A03130302000B60002303E
:104A2000B700EC30B800AB30B900220043082000DA
:104A3000BA00BB014526A0313030A1000230A200EF
:104A40002526A03130302000B6000230B700B33048
:104A5000B800A830B90022004E082000BB00220098
:104A60004D082000BA004526A0313030A1000230A8
:104A7000A2002526A03130302000B6000230B70059
:104A8000CC30B800A830B900220050082000BB008C
:104A900022004F082000BA004526A0313030A10086
:104AA0000230A2002526A03130302000B6000230AE
:104AB000B7007F30B800A830B9000E303B3E86000A
:104AC00001308700403FBA00413FBB00423FBC007D
:104AD000433FBD004526A0313030A1000230A20086
:104AE0002526A03130302000B6000230B700DF307C
:104AF000B800A930B900220052082000BB002200F3
:104B000051082000BA004526A0313030A100023003
:104B1000A2002526A03130302000B6000230B700B8
:104B20008E30B800AA30B900220054082000BB0023
:104B3000220053082000BA004526A0313030A100E1
:104B40000230A2002526A03130302000B60002300D
:104B5000B7004930B800A930B90022004808200049
:104B6000BB00220047082000BA004526A0313030A3
:104B7000A1000230A2002526A03130302000B6006E
:104B80000230B700A730B800AA30B900220056089A
:104B90002000BB00220055082000BA004526A031A5
:104BA0003030A1000230A2002526A0313030200094
:104BB000B6000230B7003730B800AC30B900220080
:104BC00058082000BB00220057082000BA004526E4
:104BD000A0313030A1000230A2002526A0313030B3
:104BE0002000B6000230B7001730B800A930B90075
:104BF00022005A082000BB00220059082000BA00F9
:104C00004526A0313030A1000230A2002526A03177
:104C10001E302000A0003B303C23A0312108E400DE
:104C20002008E3003030B6000230B7004930B80049
:104C3000A830B9006408BB006308BA004526A0315B
:104C40003030A1000230A200252E22000D168D1654
:104C50002000210886002208870001080319412E40
:104C600021088600220887000108BE314526A031B0
:104C70002000A10A0319A20A23009E18282E64000E
:104C80003C2E22000D128D1208003A30CE00390859
:104C9000C1003808C000B80A0319B90A84004108E5
:104CA00085000008D20052080319EC2F2530520667
:104CB0000319642E360886003708870052088100E1
:104CC000B60A0319B70A472ECF01D001D1016E2EC3
:104CD00051146B2ED114B80A0319B90A380884008C
:104CE000390885000008203A0319682E0B3A031989
:104CF0006A2E7A2ED11C7D2E511038088400390876
:104D000085000008F227A031031CB62ECF01D00188
:104D10000A30A000A1015008A3004F08A200BD3135
:104D2000DF25A0312108D0002008CF0038088400FA
:104D3000390885000008D03EC000FF30031800305D
:104D4000C1004008CF074108D03DB80A0319B90A8D
:104D500038088400390885000008F227A031031CB8
:104D6000B62E882E5116B62E5117CB2E3908C100FB
:104D70003808C000B80A0319B90A84004108850040
:104D80000008D2008400763004020318472E8831D0
:104D90000435053E8200511BFF2E511EDD2E4E08AC
:104DA00086008701403FCA00413FCB00423FCC0014
:104DB000433FCD000430CE07EF2E4E08860087011A
:104DC000403FC000413FC1004008CA004108CB003D
:104DD000890D893B8909CC00CD00CE0ACE0ACD1FB2
:104DE0001E2F0330D104CA09CB09CC09CD09CA0A48
:104DF0000319CB0A0319CC0A0319CD0A1E2F511E21
:104E00000F2F4E0886008701403FCA00413FCB006C
:104E1000423FCC00433FCD000430CE071E2F4E084A
:104E200086008701403FC000413FC1004008CA00E2
:104E30004108CB00CC01CD01CE0ACE0AD201D20A64
:104E40005208C0000030C101C035C10DC035C10DD0
:104E500040078400A830413D8500003FC200013F6B
:104E6000C300023FC400033FC5004D02031D422F93
:104E700044084C02031D422F43084B02031D422FDE
:104E800042084A02031C492F0A30D20A5206031D67
:104E9000202F4F0850040319552F510803390319C7
:104EA000552FFF30CF07031CD0035208C000C101AB
:104EB000C01BC1034108803AC2005008803A420238
:104EC000031D642F4F0840020318702F2000520862
:104ED000C000C101C01BC103CF024108D03B732FEA
:104EE0002000CF01D0014F0850040319882F360845
:104EF00086003708870020308100B60A0319B70AF8
:104F0000FF30CF07031CD0034F085004031D772F39
:104F1000D11C972F51188E2F2B308F2F2D30C6007C
:104F2000C701360886003708870046089E2F511CA7
:104F3000A22F360886003708870020308100B60A85
:104F40000319B70A5208C800C901C81BC903FF30BA
:104F5000C807031CC903480FB02F490A0319472E7D
:104F60000A30AD00AE01AF01B00149088500480824
:104F7000840000308435850D8435850D8407A83084
:104F8000853D003FA000013FA100023FA200033F7A
:104F9000A3004D08A7004C08A6004B08A5004A082E
:104FA000A400BE319A26A0312308B4002208B30021
:104FB0002108B2002008B100BE316426A0312D08BE
:104FC000303ED2003608860037088700520881003C
:104FD000B60A0319B70AA72F3608860037088700D4
:104FE00081010800A1003A30A00121020318FE2F20
:104FF00030302102031CFE2FA001A00A200C080063
:1050000001340034003400340A34003400340034F5
:105010006434003400340034E834033400340034A1
:105020001034273400340034A03486340134003482
:10503000403442340F340034803496349834003491
:105040000034E134F53405340034CA349A343B3446
:105050000A340D346734523465346334653469344A
:105060007634653443346F346D346D3461346E346A
:105070006434733446346C346134673420343D34E2
:10508000203454345234553445343B340A340D34CE
:1050900000346C346F34633461346C3443346834BA
:1050A000653463346B34733475346D342034203498
:1050B0002034203420342D342034253475340A34FF
:1050C0000D340A340D34003470346F347334693461
:1050D000743469346F346E3420343D3420342534D4
:1050E00075342034283425347534203474346F34C6
:1050F00020342534753429340A340D3400346434B2
:1051000069347334743461346E34633465342034F8
:1051100020342034203420342034203420342034EF
:1051200020342D34203425346C3475340A340D3455
:1051300000340A340D345234533434343834353472
:1051400020346F34753474347034753474342034CE
:10515000643469347334613462346C346534643477
:105160000A340D3400346134643463344D346934AA
:105170006E34203420342034203420342034203441
:10518000203420342034203420342D34203425346D
:1051900075340A340D3400346134643463344D346E
:1051A00061347834203420342034203420342034C6
:1051B0002034203420342034203420342D34203442
:1051C000253475340A340D3400346D346934643454
:1051D000533474346F347034203420342034203409
:1051E00020342034203420342034203420342D3412
:1051F0002034253475340A340D3400346C3465346D
:10520000643454346534733474342034203420349A
:1052100020342034203420342034203420342034EE
:105220002D342034253475340A340D34003463347D
:105230006834653463346B34733475346D342034BE
:1052400020342034203420342034203420342034BE
:1052500020342D342034253475340A340D34003490
:105260006C34653466347434533474346F3470344D
:10527000203420342034203420342034203420348E
:10528000203420342D342034253475340A340D3440
:10529000003472346534763443346F3475346E348C
:1052A000743420342034203420342034203420340A
:1052B0002034203420342D342034253475340A34FD
:1052C0000D340034643465347634493464344C34F9
:1052D0006F34773420342034203420342034203488
:1052E00020342034203420342D34203425347534B7
:1052F0000A340D34003473347434753463346B34CD
:1053000046346C3461346734203420342034203403
:10531000203420342034203420342D3420342534DB
:1053200075340A340D34003461346C3469346734B4
:105330006E3446346C346134673420342034203485
:105340002034203420342034203420342D342034B0
:10535000253475340A340D340034643465347634BD
:105360004934643448346934673468342034203430
:1053700020342034203420342034203420342D3480
:105380002034253475340A340D34003472346934D1
:10539000673468347434533474346F347034203464
:1053A000203420342034203420342034203420345D
:1053B0002D342034253475340A340D3400347434DB
:1053C000753472346E3443346F3475346E347434DF
:1053D000203420342034203420342034203420342D
:1053E00020342D342034253475340A340D340034FF
:1053F000723473343434383435345434653473345B
:1054000074342034203420342034203420342034A8
:10541000203420342D342034253475340A340D34AE
:10542000003463346F346C346F3472345434653404
:105430007334743420342034203420342034203425
:105440002034203420342D342034253475340A346B
:105450000D34003461347034703456346534723431
:105460004C346F34773420342034203420342034CA
:1054700020342034203420342D3420342534753425
:105480000A340D340034643465347634523465346F
:1054900076344C346F347734203420342034203444
:1054A000203420342034203420342D34203425344A
:1054B00075340A340D340034613470347034563429
:1054C00065347234483469346734683420342034A5
:1054D0002034203420342034203420342D3420341F
:1054E000253475340A340D3400346434653476342C
:1054F000523465347634483469346734683420343F
:1055000020342034203420342034203420342D34EE
:105510002034253475340A340D3400347334743433
:10552000753463346B3443346F3475346E3474348F
:1055300020342034203420342034203420342034CB
:105540002D342034253475340A340D34003461345C
:105550006C34693467346E3443346F3475346E346C
:105560007434203420342034203420342034203447
:1055700020342D342034253475340A340D3400346D
:1055800070346F34743445346E3464345434653458
:1055900073347434203420342034203420342034C4
:1055A000203420342D342034253475340A340D341D
:1055B000003465346534703472346F346D3454346F
:1055C000653473347434203420342034203420344F
:1055D0002034203420342D342034253475340A34DA
:1055E0000D34003462347534743474346F346E3472
:1055F00054346534733474342034203420342034EB
:1056000020342034203420342D3420342534753493
:105610000A340D34003462346F346F3474345634C9
:10562000653472344C346F34773420342034203471
:10563000203420342034203420342D3420342534B8
:1056400075340A340D34003462346F346F3474347A
:1056500056346534723448346934673468342034DD
:105660002034203420342034203420342D3420348D
:10567000253475340A340D340034633477345034AF
:105680006F3477346534723454346534733474341D
:1056900020342034203420342034203420342D345D
:1056A0002034253475340A340D34003463347734AF
:1056B0004D346F3474346F3472345434653473340D
:1056C00074342034203420342034203420342034E6
:1056D0002D342034253475340A340D3400346134CB
:1056E000633474347534613474346F3472344D34CB
:1056F0006F34643465342034203420342034203432
:1057000020342D342034253475340A340D340034DB
:105710007234653476346534723473346534643489
:1057200046346C34613467342034203420342034DF
:10573000203420342D342034253475340A340D348B
:10574000003463346334773450346F3477346534E1
:105750007234543465347334743420342034203437
:105760002034203420342D342034253475340A3448
:105770000D3400346334633477344D346F3474340F
:105780006F347234543465347334743420342034B8
:1057900020342034203420342D3420342534753402
:1057A0000A340D34003470346F3474345334743428
:1057B0006134723474345434653473347434203442
:1057C000203420342034203420342D342034253427
:1057D00075340A340D3400347334743475346334DE
:1057E0006B3450346F3473346934743469346F34C7
:1057F0006E34203420342034203420342D342034AE
:10580000253475340A340D3400346C346134733407
:1058100074344134633474347534613474346F34A3
:1058200072344D346F3464346534203420342D3474
:105830002034253475340A340D3400346134703426
:10584000703441346334743469347634613474347C
:105850006534643446346C34613467342034203425
:105860002D342034253475340A340D340034653435
:105870006534703472346F346D3457347234693433
:105880007434653443346F3475346E347434203476
:1058900020342D342034253475340A340D3400344A
:1058A0006134643463344D3469346E3420343D34AF
:1058B000203425347534203428342534753420348C
:1058C00074346F3420342534753429340A340D345B
:1058D00000346134643463344D34613478342034BA
:1058E0003D3420342534753420342834253475343F
:1058F000203474346F3420342534753429340A3418
:105900000D3400340A340D345234533434343834C2
:10591000353420346F3475347434703475347434E1
:10592000203465346E34613462346C3465346434EC
:105930000A340D3400340A340D3441346C34693483
:1059400067346E3420344434613474346134203428
:10595000413472347234613479340A340D34003491
:10596000633475347234723465346E347434203474
:1059700070346F3473346934743469346F346E3412
:10598000203420342D34203400340A340D344D3486
:1059900066346734203444346134743461342034E0
:1059A000413472347234613479340A340D34003441
:1059B0000A340D345634653472342034443461343E
:1059C0007434613420344134723472346134793443
:1059D0000A340D3400340A340D34563465347234CC
:1059E000733469346F346E342034253475342E3476
:1059F000253475340A340D34003470346F34733404
:105A00006934743469346F346E3420343D34203456
:105A1000253475340A340D3400343C342034453494
:105A20006E3464342034203420343D342034253422
:105A300064340A340D3400343C3420345334743428
:105A400061347234743420343D3420342534643469
:105A50000A340D3400340A340D344434613474345F
:105A600061342034413472347234613479340A340C
:105A70000D3400340A340D34533474346F347034BC
:105A80002034413472347234613479340A340D3440
:105A900000342534753420342834253475342034CA
:105AA00025342B34693429340A340D3400346134FC
:105AB000643463344D346134783420343D342034DC
:105AC000253475340A340D340034253475342034CB
:105AD000283425347534203425342B346934293462
:105AE0002C342034003425343234643420343D34B2
:105AF0002034253434347534093400343C342034B3
:105B000049345634253464340A340D340034FF3FAC
:105B100022008C014F3021008C0023008C012400D6
:105B20008C0122008D01CE3021008D000E3023002B
:105B30008D0024008D0122008E018F3021008E0007
:105B400023008E0124008E010830210090002400E3
:105B500090012100951703302700910092008B15CA
:105B600000308B1B01302000A0008B1355303C000F
:105B70008F00AA308F008F012408E0391738A40065
:105B80003D002608E0391438A6002308E039103813
:105B9000A3002408E0391138A40013303C00A00011
:105BA0001430A10055308F00AA308F0001308F00D3
:105BB0002000201CDD2D8B17DE2D8B1321000E16EF
:105BC0008E15080020007B30D901D301D30AD401FF
:105BD000DA01DA0AD5008530D601D7000730D800BF
:105BE00001309F319027AD3121000130C401C50142
:105BF000C601C7019531D825AD3130302000A00055
:105C0000C430A101A201A20A9D31B325AD31C63035
:105C1000A000C43095315C25AD31033020005A021C
:105C20000318F72F64000A302000A2002030A301DF
:105C3000A400B7318A27AD312308DC002208DB003D
:105C40008E18712E00305C027B3003195B02031C3E
:105C5000712E56085C02031D2F2E55085B02031C93
:105C6000712E22000C128C1620008E184C2E64000F
:105C70000A302000A2002030A301A400B7318A27F7
:105C8000AD312308DC002208DB0000305C027C30F0
:105C900003195B020318342E22008C120A302000F4
:105CA000A2002030A301A400B7318A27AD31230818
:105CB000DC002208DB003030B6000230B700FD30D7
:105CC000B800AC30B9005C08BB005B08BA00A63174
:105CD0004526AD313030A1000230A200A631252684
:105CE000AD3120000C1BC32E07305C028630031937
:105CF0005B020318C32E5C085802031D812E5B084B
:105D00005702031CC32E22008C120C1620000C1B01
:105D10009E2E64000A302000A2002030A301A400BF
:105D2000B7318A27AD312308DC002208DB000730B9
:105D30005C02853003195B02031C862E22000C12C4
:105D40000A302000A2002030A301A400B7318A2726
:105D5000AD312308DC002208DB003030B600023011
:105D6000B700FD30B800AC30B9005C08BB005B0880
:105D7000BA00A6314526AD313030A1000230A20074
:105D8000A6312526AD3120000E18D92E00309F31C6
