:100F80008731D32F080008007E1487318B1DC92FAD
:100F9000CA2FD12F0B1CCD2FCE2FD12F8731EA276F
:100FA00087317E10090020008731D62F70308400F1
:100FB000003085000C308F310927873120308400C4
:100FC000003085001D308F31092787317E102000C9
:100FD0008F31032F2700131CEE2FEF2FF22F8F31AD
:100FE0004F2787312700931CF62FF72FFA2F8F31C9
:100FF0005E27873108007D08F7007C08F6000800AE
:101DC000FF3FFF3FFF3FFF3FFF3F033022009700F1
:101DD000080016302100970008007D08F5007C08F7
:101DE000F40008007D08F9007C08F80008007D0870
:101DF0002000C0007C08BF0008007D082000BE0055
:101E00007C08BD0008008F316D278F31062F873188
:101E1000D32F640080010131890B0A2F0034FF3079
:101E200020009B009A0191109C0108006030210065
:101E30009E009F019B019C0101309D000800240031
:101E400094012830950096014F30920095120800B9
:101E500070302100990098012200960121001A1F7C
:101E6000322F332F2E2F0800703020009900970159
:101E70000230960011101708F3001608F2009801BE
:101E8000080021001508C039063895006030200090
:101E900095006030FC007C08FA000B11080020005F
:101EA0003F0840040319552F562F5B2F40088A0026
:101EB0003F080A008F3127001310080020003D085A
:101EC0003E040319642F652F6A2F3E088A003D08DF
:101ED0000A008F312700931008008F311F278F31A0
:101EE0008F31AE278F318F3128278F318E31E92600
:101EF0008F318E31E5268F318F3116278F318F311B
:101F00000F278F318F3134278F318F3141278F3118
:101F10008F318C278F310800083023009F009030CC
:101F20009D0024309E0040309B0003309C00003018
:101F3000FC000030FD008E31F2268F310030FC00B5
:101F40000030FD008731FB278F310030FC0000306E
:101F5000FD008E31ED268F31FB01080022008C013F
:101F60008D018E010830210090004F308C00CE3062
:101F70008D009F308E0023008E010E308D008C016D
:101F8000240090018D018C018E0121009517250000
:101F90008C018D018E01FF3026008C00FF308D00FA
:101FA000FF308E00FF3027008C00FF308D00FF30A7
:101FB0008E00083090001310931012149214111414
:101FC0009114C330FC000730FD008E31F7268F31AD
:101FD000C230FC000730FD008E31FD268F318B159D
:101FE00017303C00A4001430A10010303D00A300C5
:101FF0001130A4001430A60013303C00A0000800EB
:102000000034003400340034003400340034003430
:102010000034003400340034003400340034003420
:102020000034003400340034003400340034003410
:102030000034003400340034003400340034003400
:020000040001F9
:08000000FF3FFF3FFF3FFF3F00
:04000E009C2F7B1395
:00000001FF
