:100F80008731CB2F053008007E1487318A31CA2281
:100F900087317E10090020008F31BE2F2000D6013E
:100FA000D70120005608D0005008CC0050308931BD
:100FB000582187312000D1005430D2002530D30091
:100FC00056085207D4005708533DD50054088600F0
:100FD0005508870051088100640001302000D607C1
:100FE0000030D73D5708803AD00080305002031DB2
:100FF000FB2F80305602031CFE2FFF2FD12F08003D
:101000000800240094012830950096014F3092008A
:10101000951208002000C401C40A2100BC18112840
:10102000122828283C11FF302000C300430821006B
:10103000B6009531A32588319531A92588319531A0
:10104000A625883121003B082000C3004308C400C6
:10105000200044080800083020003B020318312813
:1010600032284A283C08CD3E86008701010823002B
:101070009A000130F00070082000BC0708303C02E4
:10108000031C432844284528BC010130F0007008A7
:10109000BB074C28210011120800F40070087104ED
:1010A00003195328542865287435A03E860087010B
:1010B0007008C03F7108C13F7208F3007408AC3E6D
:1010C000860087017308810072287435A03E86006F
:1010D00087018F30C03F1530C13F7408AC3E860099
:1010E0008701810108002000C70043084404031958
:1010F0007A287B288C284735A03E86008701430844
:10110000C03F4408C13F4508C6004708AC3E8600C2
:1011100087014608810099284735A03E860087014F
:101120008F30C03F1530C13F4708AC3E8600870175
:101130008101080021003C100230FA007A08BB004F
:10114000A9289531E2258831C5289531E7258831D0
:10115000C5282E08FA007A08F9000430A03E86005F
:101160008701413F8A00403F0A008831FB00FC01B3
:101170007C08003A0319BD28A5287B08023A031908
:10118000A128013A0319A128A52808009531A02516
:10119000883121003C1CCD28CE28DC28963105263C
:1011A0008831003A0319D528D628DC280F302000D2
:1011B000C00040082100BA0021003A082000C00009
:1011C000C101C035C10D0030400784009030413D61
:1011D0008500013F8A00003F0A0088312000C200DC
:1011E00042082100BA0008002100BC1504299531ED
:1011F000E2258831222995319D2588310330222925
:101200009531E725883122292C08FA007A08F9005F
:1012100021088A0020080A008931FB00FC017C08B3
:10122000003A0319142900297B08013A03190029FF
:10123000033A0319F728013A0319F728073A031963
:10124000FB28002908002000CF0020004F088B3128
:1012500016238931003A03192E292F2925295630C2
:101260002000C8001730C9004D30CE004E08CA001B
:101270009631CA26893101302000C3000030C400F5
:101280004C3097317827893100302000C800C900E0
:10129000CA019631BC2689319631002689318831C0
:1012A0000A208931013A0319562957294F29080084
:1012B0002000CE00CF0120004E088B31162389314B
:1012C000003A0319642965295B2934302000C800DD
:1012D0001730C9004F30CD004D08CA009631CA26DC
:1012E000893101302000C3000030C4004C309731F8
:1012F0007827893100302000C800C900CA01963122
:10130000BC26893196310026893188310A208931FD
:10131000013A03198C298D29852920004F080800DE
:101320002000DA00DD01C1295D08D700D801570887
:10133000540786005808553D87000108D900590810
:10134000D0005A085D079731042789311E302000EC
:10135000D7005708DB003030D7005708DC000130D9
:10136000DC025C08031DB529B629AF290130DB0278
:101370005B08031DBC29BD29AF290130D7005708E0
:10138000DD0756085D02031CC629C72994290800F9
:1013900020003A08BD3E86008701810123001D1D03
:1013A000D229D329DE2920003A08BD3E86008701D4
:1013B000811429088A0028080A00893123009D1C0D
:1013C000E229E329EE2920003A08BD3E8600870184
:1013D000011527088A0026080A00893120003A08EA
:1013E000BD3E8600870101080319F729F829FE2967
:1013F00025088A0024080A008931012A9731A72785
:10140000893108002000D1004D08D0005008D400D8
:101410004F08D3004E08D200200051088B3116230C
:101420008A31003A0319152A162A0C2A8F30200017
:10143000C8001730C9005230D0005008CA00963199
:10144000CA268A3101302000C3000030C4004C306D
:10145000973178278A3100302000C800C900CA01BE
:101460009631BC268A31963100268A3188310A208D
:101470008A31013A03193D2A3E2A362A0800210002
:101480009112C8302000C3000930C40096312326D1
:101490008A31210011122B302000C3000830C40013
:1014A000963129268A31083023009F0090309D0014
:1014B00024309E0040309B0003309C008B30200085
:1014C000C3001530C400963117268A31B63020008B
:1014D000C3001530C40096311D268A31B230200079
:1014E000C3001530C400963111268A312000B8019E
:1014F000BD01BC010830C5004508BB00BA01FD01B3
:10150000B90121009116080095319A258A31FA0017
:1015100021003708860087017A0881000130FA002F
:101520007A08B7070130B8020030B93B38083904EF
:1015300003199B2A9C2AA12A9531BE258A310530A0
:10154000C92ABC15AB2A9531F6258A31C92A9531AD
:10155000F1258A31C92A2C08FA007A08F9002108F5
:101560008A0020080A008A31FB00FC017C08003A4E
:101570000319BB2AA72A7B08013A0319A72A033AB1
:101580000319A32A013A0319A32A073A0319A72A20
:10159000A72A08008B1DCD2ACE2AD62A0B1CD12AB9
:1015A000D22AD62A973167278A31152B0B1FD92AC1
:1015B000DA2A152B2100921DDE2ADF2AEA2A2000D2
:1015C000921DE32AE42AEA2A2F088A002E080A003C
:1015D0008A31152B2100911DEE2AEF2AF52A2000D1
:1015E000911DF32AF42AF52AE42A2100111EF92A72
:1015F000FA2A052B2000111EFE2AFF2A052B2D0892
:101600008A002C080A008B31152B2100911E092B12
:101610000A2B152B2000911E0E2B0F2B152B2B08A0
:101620008A002A080A008B31152B08002000C6000A
:10163000C701C70A21003C191E2B1F2B5F2B20005E
:101640004608C50045082100B600BC103C153C10FA
:101650000E302000C50045082100BA00F430B40067
:101660000130B500BC158F30A0001530A100AC01D1
:101670008F30A2001530A300AD018F30A4001530CB
:10168000A500AE018F30A6001530A700AF01C23013
:10169000A8000730A900B001C2302000C3001530F7
:1016A000C40096310B268B319531A3258B319631B1
:1016B000A2268B319531AF258B312000C701200048
:1016C0004708080022008C018D018E01083021009E
:1016D00090004F308C00CE308D009F308E00230064
:1016E0008E010E308D008C01240090018D018C0143
:1016F0008E012100951725008C018D018E01FF3090
:1017000026008C00FF308D00FF308E00FF30270058
:101710008C00FF308D00FF308E00083090001310D9
:10172000931012149214111491148C302000C300E1
:101730001530C40096312F268B318D302000C30028
:101740001530C400963135268B318B1517303C008F
:10175000A4001430A10010303D00A3001130A400FB
:101760001430A60013303C00A00008009631052676
:101770008B31003A0319BD2BBE2BEE2BCB2B9531B1
:10178000D8258B310A2C9531DD258B310A2C9531EA
:10179000E7258B310A2C21002F08FA007A08F9007E
:1017A0000630A03E86008701413F8A00403F0A0084
:1017B0008B31FB00FC017C08003A0319E02BC72B9E
:1017C0007B08013A0319C72B033A0319BF2B013ACF
:1017D0000319C32B073A0319C72BC72B21003C1051
:1017E0001730A03E86008701403F84008501810AB2
:1017F00000089531CE258B3101302100B802003030
:10180000B93B38083904031D062C072C092C063077
:101810000A2C0330080000302000D8000030D70028
:101820000030D6000030D500D401302C5408C6005A
:10183000C7014608430786004708443D8700010862
:10184000C800C901CA01CB014808D5074908D63DDF
:101850004A08D73D4B08D83D0130C6004608D4079A
:1018600045085402031C352C362C162CFF30550528
:10187000D000FF305605D10000305705D2000030AF
:101880005805D3005508C6005608C7005708C800B9
:101890005808C9001030C936C80CC70CC60C890BD3
:1018A0004B2CFF304605CC00FF304705CD00003003
:1018B0004805CE0000304905CF004C08D0074D0840
:1018C000D13D4E08D23D4F08D33D5308D8005208B1
:1018D000D7005108D6005008D5005508C600560854
:1018E000C7005708C8005808C9001030C936C80CCE
:1018F000C70CC60C890B762C4608D5074708D63D81
:101900004808D73D4908D83D5509C3005609C400C9
:1019100008002000C700C801470886008701403F33
:10192000C500413FC6000830240095003D00230853
:10193000E039A3002408E039A4003C00A001A10183
:10194000EF302000C300430821008E05F73020004F
:10195000C300430821008E05F7302000C300430870
:1019600022008E0506302000C3004308CA00303034
:10197000C3004308C8000130C8024808031DC12C39
:10198000C22CBB2C0130CA024A08031DC82CC92C2A
:10199000BB2CC9014608C4004508C300490AD22C23
:1019A000C436C30C890BD02C4318D72CD82CDE2C72
:1019B000EF30C300430822008E05E02C22000E16F3
:1019C0001A302000C3004308CA000130CA024A0886
:1019D000031DEB2CEC2CE52C22008E15063020008C
:1019E000C3004308CA003030C3004308C8000130B8
:1019F000C8024808031DFD2CFE2CF72C0130CA023A
:101A00004A08031D042D052DF72CF730C3004308A9
:101A100022008E0501302000C3004308C9071030A2
:101A20004902031C142D152DCA2CEF30C3004308A6
:101A300022008E058E161A302000C3004308CA000B
:101A40000130CA024A08031D262D272D202DDF3024
:101A5000C300430822008E053D002308E0391038FA
:101A6000A3002408E0391138A40013303C00A00082
:101A70001430A10021000E168E1528302400950088
:101A800008002000BE01BF019731C1278D318B179F
:101A90000B178731CE278D31FA302000DE005E082B
:101AA000CC00D530DF005F08CD000630CE0000301E
:101AB000CF0050308A3102228D3154302000C300D3
:101AC0002530C4001E30DE005E08C5008C310B24BA
:101AD0008D3154308600253087005E312000430868
:101AE000C03F4408C13F30302100DB000030DC0043
:101AF000DB302000E2000030E300DB30E0000030AB
:101B0000E1007430C3002530C4000630DE005E08FA
:101B1000C5008C310B248D317A308600253087004A
:101B200020004308C03F4408C13F543086002530A0
:101B300087000030C03F55308600253087001830C0
:101B400081005630860025308700183081005730DC
:101B500086002530870030308100583086002530DF
:101B6000870001308100593086002530870004301D
:101B70008100543086002530870046318101543081
:101B8000860025308700473181015430860025309A
:101B90008700483181015430860025308700493163
:101BA000810154308600253087004A31810154304C
:101BB0008600253087004B31810154308600253066
:101BC00087004C31810154308600253087004D312B
:101BD00081016230860025308700C030810063308B
:101BE0008600253087000230810054308600253081
:101BF00087005031810154308600253087005131F3
:101C000081016630860025308700603081006730B2
:101C1000860025308700013081006830860025303D
:101C20008700BE308100693086002530870006308D
:101C300081006A30860025308700293081005430C9
:101C400086002530870057318101543086002530C9
:101C50008700583181015430860025308700593182
:101C6000810154308600253087005A31810154307B
:101C70008600253087005B31810170308600253079
:101C80008700DE3081007130860025308700023009
:101C900081007230860025308700AA3081007330C1
:101CA000860025308700FC308100743086002530A6
:101CB0008700183081007530860025308700183085
:101CC0008100763086002530870030308100773003
:101CD000860025308700013081007830860025306D
:101CE00087008430810079308600253087008101AB
:101CF0007A308600253087001A3081007B308600DC
:101D000025308700FF3081007C3086002530870039
:101D1000603081007D3086002530870001308100F1
:101D20007E30860025308700BE3081007F308600FF
:101D300025308700063081008030860025308700FE
:101D40000430810081308600253087008101823097
:101D5000860025308700D63081008330860025300C
:101D60008700FE30810084308600253087000130F6
:101D70008100853086002530870001308100863063
:101D800086002530870001308100873086002530AD
:101D900087000130810088308600253087000130BF
:101DA00081008930860025308700013081008A302B
:101DB000860025308700013081008B308600253079
:101DC0008700013081008C3086002530870001308B
:101DD00081008D30860025308700013081008E30F3
:101DE000860025308700013081008F308600253045
:101DF0008700FF3081009030860025308700FF305B
:101E000081009130860025308700FF3081009230BC
:101E1000860025308700F73081009330860025301A
:101E20008700FC3081009430860025308700013027
:101E30008100953086002530870001308100963082
:101E400086002530870002308100973086002530DB
:101E5000870001308100983086002530870081019D
:101E60009930860025308700303081009A30860016
:101E7000253087005B3081009B308600253087004D
:101E8000203081009C3086002530870001308100A1
:101E90009D30860025308700FF3081009E3086000F
:101EA00025308700FF3081009F3086002530870075
:101EB000FF308100A030860025308700FF30810090
:101EC000A130860025308700FF308100A2308600D7
:101ED0002530870053308100A330860025308700ED
:101EE000FA3081005430D4002530D5002830DE008F
:101EF0005E08D6000030893190218D315430860043
:101F000025308700453104300106031D882F892FB5
:101F10008C2F20003F178E2F20003F135430860057
:101F200025308700453106300106031D982F992F73
:101F30009B2F3E149C2F3E103E308C3189248D31D6
:101F40005430860025308700453105300106031DD9
:101F5000AA2FAB2FAE2F22008C13B02F22008C178C
:101F600021005D0895318E258D3121005D08883175
:101F700000208D316400BA2F8731CB2F5730840079
:101F80009630850060308600003087000030FF000A
:101F90000830963189268F313B3084009630850099
:101FA000D5308600003087000030FF0006309631C3
:101FB00089268F3154308400253085009C30FE0006
:101FC0000230FF0096317D268F31FD0120308400E4
:101FD000003085002030FE000030FF0096317D2665
:101FE0008F31A0308400003085003530FE00003095
:101FF000FF0096317D268F317E1020008D31412DDE
:10200000D33415345F3416344F341634B6340B34AD
:1020100084340A3441341634F4340834D834153452
:10202000DD341534E2341534E7341534EC3415342A
:10203000F1341534F6341534FB3415349A3408343D
:102B1000FF3FFF3FFF3F08000800080008000130AA
:102B2000080024009614080024001615080024004C
:102B300096150800240011080800200091150800CF
:102B40002000911108002000911108002400951226
:102B5000080021009111080024001614080021002B
:102B6000911508009731A7279531080023001D1201
:102B70001D1608002400961616160800240096124A
:102B8000161608008831C62095310800033022004F
:102B9000970008001630210097000800F000700828
:102BA0002400910008002100BC10BB010E30080079
:102BB0009531912595310130080095319125953158
:102BC000023008009531912595310130080095318A
:102BD00094259531003008009531BE25953105309A
:102BE00008009531BA2595310A3008009531BA258B
:102BF0009531093008002100BC10BB010E300800DF
:102C000000309731E027963108002400160E890C19
:102C1000890C0139080020004408AF004308AE00C9
:102C2000080020004408A5004308A4000800200074
:102C30004408A9004308A800080020004408A70091
:102C40004308A600080020004408AB004308AA007F
:102C5000080020004408AD004308AC000800200034
:102C60004408EB004308EA00080020004408E9009B
:102C70004308E8000800063400340034003400340F
:102C8000003421003C10953197259631043008001E
:102C9000FF3020009B009A0191109C010800210048
:102CA0003C1436359531CE25963103300800763404
:102CB00025345734253474342534553425342100D3
:102CC0003C140314360D9531CE259631053008009D
:102CD000603021009E009F019B019C0101309D00FE
:102CE000080070302100990098012200960121000F
:102CF0001A1F7B2E7C2E772E080064008001013184
:102D00000130FE020030FF3B7F087E04031D7E2E53
:102D10000034FE0012001E000130FE020030FF3BB6
:102D20007F087E04031D8A2E00347608F1007508A2
:102D3000F0007708F8007808F200003088314D2064
:102D4000963108002400951AA62EA72EAE2E9401C7
:102D50002830950096014F3092009516080070308B
:102D60002000990002309700960111101708A30067
:102D70001608A2009801080020004908C40048086D
:102D8000C3004A08CB004B08C500023088317320CD
:102D90009631080020004908C4004808C3004A08CA
:102DA000CB004B08C50000308831732096310800F5
:102DB00021001508C03906389500603020009500C4
:102DC0006030C3004308B7000B11080020006A08F8
:102DD0006B040319EC2EED2EF22E6B088A006A08A4
:102DE0000A009631270013100800200068086904C3
:102DF0000319FB2EFC2E012F69088A0068080A00BF
:102E000097312700931008002000D3005308D10009
:102E10005108CC005008D2005208CD005030893102
:102E2000232197310800F3002100BC1D182F192F12
:102E3000222F7308F2007208B7007108B9007008F9
:102E4000B800BC1108000230F0000030F100790831
:102E50009731132797310030F500F600F7019631CE
:102E600095269731043008000130F0000030F10061
:102E700079089731132797310030F500F600F701F4
:102E8000963195269731023008000230F00000306C
:102E9000F10079089731132797310030F500F600DB
:102EA000F701963195269731023008000130F00085
:102EB0000030F10079089731132797310030F50081
:102EC000F600F70196319526973104300800270067
:102ED000131C6B2F6C2F6F2F9631E626973127002E
:102EE000931C732F742F772F9631F5269731080096
:102EF0002000C6002100BC1D7E2F7F2F8E2F2000BA
:102F00004608C50045082100B700200044082100FC
:102F1000B900200043082100B800BC11080079085E
:102F200086008701403FF000413FF1007908023EF2
:102F30008600870101089731132797310030F5008B
:102F4000F600F701963195269731023008002300EC
:102F50001908F00020003A08C53E86008701700875
:102F600081000130F0007008BA0708303A02031CF3
:102F7000BA2FBB2FBC2FBA010130F0007008B9077F
:102F800008008831012097318B31622397319631C7
:102F9000712697319531CA2597319531C6259731DC
:102FA0009631682697319631482697319631AF266B
:102FB00097319631D82697318A313F2297310800D0
:102FC0002000C400C501C50A2100BC18E82FE92F64
:102FD000FD2FBC142000C50144080319F02FF12F68
:102FE000F52F2100BA01BA0AFA2F0230C3004308B4
:102FF0002100BA009531AC25973120004508080022
:103000005034A034FF3FFF3FFF3FFF3FFF3FFF3FF4
:00000001FF
