:020000040000FA
:100F80008731CB2FC73401347E148731AC31FE2436
:100F900087317E10090020008F318E2F2100CE0076
:100FA0002100CF01F72F21004F082100CB00CC01F9
:100FB0004B0821004807860021004C082100493DCC
:100FC000870001082100CD004D082000C400210049
:100FD0004E0821004F07A831CF208731B7317D2738
:100FE000873101302100CB004B082100CF072100C1
:100FF0004A0821004F02031CFE2FFF2FD32F0800A9
:10100000080003102000360D370DB8003808BE0068
:101010003E08031D0C280D2816280030B7000030AC
:10102000B6000030B5000030B40085283408B800A0
:101030003508B9003608BA003708BB001F30BB3688
:10104000BA0CB90CB80C890B1F283808BC003C0836
:10105000BD00B617FF30B405FF30B505FF30B6054B
:101060000030B7059630BE02BE1F372838285828F2
:101070003E08803A973E03183E283F284828003013
:10108000B7000030B6000030B5000030B40085284D
:101090000130B736B60CB50CB40C890B49280130B9
:1010A000B8003808BE07031D562857284828752859
:1010B00020303E02031C5D285E2870280030B700F7
:1010C0000030B6000030B5000030B4008528013093
:1010D000B435B50DB60DB70D890B68280130BE02C9
:1010E0003E08031D7428752867283D0803197928D0
:1010F0007A288528B409B509B609B709B40A0319CD
:10110000B50A0319B60A0319B70A08002000370800
:101110008039BC003C08C4003735BC003C08C60020
:10112000B61F932894289528461446080319992831
:101130009A28AA28460A031D9E289F28A72800301F
:10114000B7000030B6000030B5000030B400B6176C
:10115000B701B2280030B7000030B6000030B5004B
:101160000030B4003B088039BC003C08C50045088D
:1011700044060319BC28BD28BE2844173B35BC00D3
:101180003C08C500BA1FC528C628C728451445080D
:101190000319CB28CC28DC28450A031DD028D128E8
:1011A000D9280030BB000030BA000030B900003050
:1011B000B800BA17BB01E4280030BB000030BA0009
:1011C0000030B9000030B800460845020318E9288D
:1011D000EA284029441FED28EE28F2288030BC0080
:1011E0003C08C4064608BC003C08C7004508BC00D3
:1011F0003C08C6004708BC003C08C5003408BC00D9
:101200003C08C7003808BC003C08B4004708BC00D4
:101210003C08B8003508BC003C08C7003908BC00D1
:1012200035308600003087003C0881003930860068
:1012300000308700470881003608BC003C08C70022
:101240003A08BC0036308600003087003C08810038
:101250003A30860000308700470881003708BC001C
:101260003C08C7003B08BC003730860000308700D0
:101270003C0881003B308600003087004708810031
:10128000C7014508BC00BD013D08BF0046083C023F
:10129000BE00031CBF033F08803AC00080304002FC
:1012A000031D54291A303E02031C5729582990293E
:1012B00020003708360435043404031D60296229F0
:1012C000013063290030BC003C08C7000030B70083
:1012D0000030B6000030B5000030B4004508BC0056
:1012E0003C08C6009729471C762977297D2947366F
:1012F0000138BC003C08C7007F290310C70C341C10
:10130000822983298429C7170130BC00B737B60C5E
:10131000B50CB40CBC0B86290130BC003C08C607D8
:10132000200045084602031C962997297329441B6F
:101330009A299B29D3294608031D9F29A029A92959
:101340000030B7000030B6000030B5000030B40007
:10135000D42A3808B4073908B53D3A08B63D3B08E9
:10136000B73D371CB429B5295F2A471CB829B929CC
:10137000BF2947360138BC003C08C700C12903100B
:10138000C70C341CC429C529C629C7170130BC00A5
:10139000B737B60CB50CB40CBC0BC8290130BC0077
:1013A0003C08C6075F2A3708803ABC003B08803AF1
:1013B0003C02031DE5293A083602031DE5293908D8
:1013C0003502031DE529380834020318E829E92904
:1013D000212AFF30BC00FF30BD00FF30BE00FF30CF
:1013E000BF0034083802C0003508393BC100360858
:1013F0003A3BC20037083B3BC3004008BC074108EA
:10140000BD3D4208BE3D4308BF3D3F08B7003E0812
:10141000B6003D08B5003C08B4008030BC003C0874
:10142000C406C709C70A4708031D172A182A292A0C
:101430000130B4070030B53D0030B63D0030B73D57
:10144000292A3808B4023908B53B3A08B63B3B08AC
:10145000B73B3708360435043404031D302A312ADB
:101460005B2A4708031D352A362A5B2A0030B7005D
:101470000030B6000030B5000030B400D42A01308E
:10148000B435B50DB60DB70D890B402AC71F492AD3
:101490004A2A4B2A3414471C4E2A4F2A522A031434
:1014A000C70D542A0310C70D46080319582A592A94
:1014B0005B2A0130C602B61F5E2A5F2A3F2AC50199
:1014C000C71F632A642A732A47087F390319692AC8
:1014D0006A2A6D2AC501C50A732A341C702A712A2A
:1014E000732AC501C50A45080319772A782AA52A4F
:1014F0000130B4070030B53D0030B63D0030B73D97
:10150000371C832A842AA52A3408BC003508BD006C
:101510003608BE003708BF000130C000BF37BE0C20
:10152000BD0CBC0CC00B8E2A3F08B7003E08B600AD
:101530003D08B5003C08B400460A0319A02AA12AB8
:10154000A52A0130BC003C08C607460A0319A92A8F
:10155000AA2AAF2A4608031DAE2AAF2ABD2A0030A8
:10156000B7000030B6000030B5000030B4004608C7
:10157000031DBB2ABC2ABD2AC401461CC02AC12A9D
:10158000C32AB617C72A7F30BC003C08B6054636CA
:10159000BC0037308600003087003C088100C41F43
:1015A000D22AD32AD42AB71708002000440886007C
:1015B00045088700433101082100D300530821006A
:1015C000D700200044088600450887004231010802
:1015D0002100D30053082100D600602F20004408CA
:1015E0008600450887004531010820005406031D88
:1015F000FA2AFB2A3F2B2000440886004508870072
:101600004631010820005506031D072B082B3F2BF0
:101610002000440886004508870047310108200063
:101620005606031D142B152B3F2B20004408860063
:10163000450887004831010820005706031D212B6B
:10164000222B3F2B200044088600450887004931A3
:10165000010820005806031D2E2B2F2B3F2B2000A6
:1016600044088600450887004A31010820005906D1
:10167000031D3B2B3C2B3F2BB43158248A312100D6
:10168000BA018D2F200044088600450887004531A7
:10169000010820005406031D4E2B4F2BAA2B2000BF
:1016A0004408860045088700463101082000550699
:1016B000031D5B2B5C2BAA2B2000440886004508E9
:1016C00087004731010820005606031D682B692B4F
:1016D000AA2B2000440886004508870048310108ED
:1016E00020005706031D752B762BAA2B20004408DB
:1016F0008600450887004931010820005806031D6F
:10170000822B832BAA2B20004408860045088700E3
:101710004A31010820005906031D8F2B902BAA2B5C
:10172000200044088600450887004B31010821004D
:10173000D30053082100D80021005808B531622594
:101740008A310130B5314E258A3155302200C6002C
:101750001330C7002100BA018D2F200044088600F5
:10176000450887004531010820005406031DB92BA8
:10177000BA2B842C20004408860045088700463197
:10178000010820005506031DC62BC72B842C200002
:1017900044088600450887004731010820005606A6
:1017A000031DD32BD42B842C20004408860045082D
:1017B00087004831010820005706031DE02BE12B6C
:1017C000842C200044088600450887004931010820
:1017D00020005806031DED2BEE2B842C200044081E
:1017E0008600450887004A31010820005906031D7C
:1017F000FA2BFB2B842CB431A8248A312000350825
:101800002100DB00200034082100DA0021005A0802
:101810005B0403190C2C0D2C822C21005A08860025
:101820005B08870001308100B43132248A31210005
:10183000D30021005A08023E2100D40000302100CC
:101840005B3D2100D50054088600550887005308E9
:1018500081002000440886004508870042310108C5
:101860002100D30021005A08013E2100D40000309D
:1018700021005B3D2100D5005408860055088700F3
:101880005308810021005A08033E2100D300003094
:1018900021005B3D2100D4005308860054088700D6
:1018A00022308100B43132248A312100D30021005A
:1018B0005A08053E2100D400003021005B3D210084
:1018C000D500540886005508870053088100210080
:1018D0005A08043E2100D300003021005B3D210066
:1018E000D40053088600540887000130810021008D
:1018F0005B082000BE0021005A082000BD0099317D
:10190000CF218A312100BA012100BA018D2F210097
:10191000BA018D2F20004408860045088700453114
:10192000010820005406031D962C972CE92C20005A
:101930004408860045088700463101082000550606
:10194000031DA32CA42CE92C200044088600450884
:1019500087004731010820005606031DB02CB12C2A
:10196000E92C20004408860045088700483101081A
:1019700020005706031DBD2CBE2CE92C2000440876
:101980008600450887004931010820005806031DDC
:10199000CA2CCB2CE92C200044088600450887007F
:1019A0004A31010820005906031DD72CD82CE92CF8
:1019B000200044088600450887004B3101082100BB
:1019C000D30053082100D90021005908B53158250A
:1019D0008A312100BA018D2F200044088600450875
:1019E00087004531010820005406031DF82CF92C0E
:1019F0004C2D200044088600450887004631010828
:101A000020005506031D052D062D4C2D20004408F1
:101A10008600450887004731010820005606031D4F
:101A2000122D132D4C2D20004408860045088700F8
:101A30004831010820005706031D1F2D202D4C2D75
:101A4000200044088600450887004931010820002D
:101A50005806031D2C2D2D2D4C2D200044088600EA
:101A6000450887004A31010820005906031D392D19
:101A70003A2D4C2D200044088600450887004B3144
:101A800001030319442D462D0130472D003021005C
:101A9000D30053082100B8002100BA018D2F200087
:101AA0004408860045088700453101082000540697
:101AB000031D5B2D5C2DAF2D2000440886004508DA
:101AC00087004631010820005506031D682D692D49
:101AD000AF2D2000440886004508870047310108E3
:101AE00020005606031D752D762DAF2D20004408CD
:101AF0008600450887004831010820005706031D6D
:101B0000822D832DAF2D20004408860045088700D4
:101B10004931010820005806031D8F2D902DAF2D4F
:101B2000200044088600450887004A31010820004B
:101B30005906031D9C2D9D2DAF2D200044088600C5
:101B4000450887004B3101030319A72DA92D01304A
:101B5000AA2D00302100D30053082100B900210034
:101B6000BA018D2F200044088600450887004531C2
:101B7000010820005406031DBE2DBF2D5A2F200042
:101B800044088600450887004631010820005506B4
:101B9000031DCB2DCC2D5A2F20004408860045086C
:101BA00087004731010820005606031DD82DD92D86
:101BB0005A2F200044088600450887004831010854
:101BC00020005706031DE52DE62D5A2F200044085E
:101BD0008600450887004931010820005806031D8A
:101BE000F22DF32D5A2F2000440886004508870067
:101BF0004A31010820005906031DFF2D002E5A2FDF
:101C0000B431A8248A31200035082100DB002000EF
:101C100034082100DA0021005A085B040319112E50
:101C2000122E582F21005A0886005B0887000130C9
:101C30008100B43132248A312100D30021005A08B6
:101C4000023E2100D400003021005B3D2100D50080
:101C50005408860055088700530881002000440876
:101C6000860045088700423101082100D300210089
:101C70005A08013E2100D400003021005B3D2100C4
:101C8000D5005408860055088700530881002100BC
:101C90005A08033E2100D300003021005B3D2100A3
:101CA000D4005308860054088700F93081002000D2
:101CB0005A0886005B08870001082100D300210034
:101CC0005A08053E2100D400003021005B3D210070
:101CD000D50054088600550887005308810020006D
:101CE0005A0886005B088700413101082100D300B3
:101CF00021005A08063E2100D400003021005B3D3F
:101D00002100D5005408860055088700530881003B
:101D100020005A0886005B08870042310108210034
:101D2000D30021005A08073E2100D40000302100D2
:101D30005B3D2100D50054088600550887005308F4
:101D4000810020005A0886005B08870043310108A3
:101D50002100D30021005A08083E2100D4000030A1
:101D600021005B3D2100D5005408860055088700FE
:101D70005308810021005A08093E2100D300003099
:101D800021005B3D2100D4005308860054088700E1
:101D90000130810021006C0886006D088700010871
:101DA0002100D30021005A080A3E2100D40000304F
:101DB00021005B3D2100D5005408860055088700AE
:101DC0005308810021006C0886006D0887004131AE
:101DD00001082100D30021005A080B3E2100D40045
:101DE000003021005B3D2100D500540886005508D5
:101DF00087005308810021005A080C3E2100D300BF
:101E0000003021005B3D2100D400530886005408B7
:101E100087000230810021006A0886006B08870075
:101E2000423101082100D30021005A080D3E210053
:101E3000D400003021005B3D2100D500540886000D
:101E4000550887005308810021006A0886006B0846
:101E50008700433101082100D30021005A080E3EBB
:101E60002100D400003021005B3D2100D500540842
:101E70008600550887005308810021005A08043E57
:101E80002100D300003021005B3D2100D400530825
:101E90008600540887000A30810021005B0820007A
:101EA000BE0021005A082000BD009931CF218A319F
:101EB0002100BA012100BA018D2F2100BA018D2F16
:101EC000210057082100D300D4015408003A031917
:101ED0006A2F5D2F5308103A0319EE2A303A03197E
:101EE000422B013A0319AD2B113A0319872C023A00
:101EF0000319872C0A3A0319872C023A0319872CF5
:101F0000CA3A03198A2C013A0319EC2C023A031934
:101F10004F2D0A3A0319B22D5D2F08008731C227D1
:101F20008F31DA008731C3278F31DB000030840026
:101F3000A830850021001200E8001200E90012001C
:101F4000EA001200EB001200EC001200ED0012009B
:101F5000EE002300B43164248F31C700B43165240E
:101F60008F31C800B43166248F31C900B431672481
:101F70008F31CA0098308400233085005830FE002D
:101F80000430FF00B53178258F31483084000030AF
:101F900085001230FE000030FF00B53178258F310A
:101FA000A0308400003085002830FE000030FF00A3
:101FB000B53178258F3120308400013085004930DB
:101FC000FE000030FF00B53178258F31B730840036
:101FD000013085001030FE000030FF00B53178255B
:101FE0008F3120308400023085005030FE000030F8
:101FF000FF00B53178258F317E102000A131852971
:10200000FF3020009B0020009A012000911020004A
:102010009C0108002100D801D901063021003F06AB
:10202000031D132814282B2820004C082100CE0063
:10203000CF01CE35CF0D1830D0002430D1004E085E
:10204000500786004F08513D8700403F2100D800CF
:10205000413FD9005E28210040080319302831286B
:102060004828210041082100CE00CF01CE35CF0DF8
:102070001830D0002430D1004E08500786004F0899
:10208000513D8700403F2100D800413FD9005E28E4
:10209000210042082100CE00CF01CE35CF0D1830EF
:1020A000D0002430D1004E08500786004F08513D23
:1020B0008700403F2100D800413FD9002100D601D0
:1020C000D70110302100CE004E082100D40010307E
:1020D0002100CE004E082100D5002100D2012100B0
:1020E000D301B631F0269031200037082100E900F5
:1020F000200036082100E800210069082100D700EF
:10210000210068082100D600B431DE24903120007F
:1021100035082100E900200034082100E8002100F2
:1021200068082100D607210069082100D73DB43195
:102130003524903120308400B8308500003F2100E4
:10214000CE00013FCF004E08210058022100D000F0
:102150004F082100593B2100D100510821005702AE
:10216000031DB6282100500821005602031CB9287F
:10217000BA28DB2820308400B8308500003F2100D9
:10218000CE00013FCF004E08210058072100D000AB
:102190004F082100593D2100D1002100570821009E
:1021A0005102031DD72821005608210050020318B0
:1021B000DA28DB28E2280A3021005302031CE12838
:1021C000E228F32822000C1222008C12210052086F
:1021D0000319EB28EC2854299E317F269031A43135
:1021E000EC24903154292100D201D20A9E317F265D
:1021F0009031A431EC24903121005708210059027C
:10220000031D062921005608210058020318092938
:102210000A292F2922008C1E0E290F291429220099
:102220000C1E13291429712822000C1201302100E0
:10223000D5025508031D1D291E291629013021002C
:10224000D4025408031D25292629162922008C169C
:1022500001302100CE004E082100D3077128220052
:102260000C1E33293429392922008C1E382939299A
:10227000712822008C1201302100D5025508031D5F
:10228000422943293B2901302100D4025408031D6F
:102290004A294B293B2922000C1601302100CE008F
:1022A0004E082100D3077128A9312A219031080056
:1022B00021004F0880392000C20042082100D400CC
:1022C0004F352000C20042082100DB00CE1F6929E3
:1022D0006A296B295B145B0803196F29702980290F
:1022E0005B0A031D742975297D290030CF00003059
:1022F000CE000030CD000030CC00CE17CF018829B1
:102300000030CF000030CE000030CD000030CC00D7
:102310004B0880392000C20042082100D4064B350A
:102320002000C20042082100DC00CA1F9829992918
:102330009A295C145C0803199E299F29AF295C0A1D
:10234000031DA329A429AC290030CB000030CA000A
:102350000030C9000030C800CA17CB01B7290030CF
:10236000CB000030CA000030C9000030C8004B0864
:102370004A0449044804031DBE29BF29DA29003054
:10238000CF000030CE000030CD000030CC008030D7
:10239000CE047F30CF0454082000C2004208210040
:1023A000CF044F08CB004E08CA004D08C9004C08A6
:1023B000C800542B5B08031DDE29DF29F0290030FB
:1023C000CF000030CE000030CD000030CC004F08F0
:1023D000CB004E08CA004D08C9004C08C800542B59
:1023E0005B082000C200C3014308C50021005C084F
:1023F00020004202C400031CC50344087F3E2100A4
:10240000D50000302000453D2100D6004F08D30004
:102410004E08D2004D08D1004C08D0000030CF004B
:102420000030CE000030CD000030CC000030DA00AB
:102430000030D9000030D8000030D700DC01602A1D
:102440005C080319242A252A3F2A0130D035D10DF2
:10245000D20DD30D890B262A0130CC35CD0DCE0DF2
:10246000CF0D890B2D2ADA1F362A372A382A4C1429
:102470000130D735D80DD90DDA0D890B392A4B0823
:102480005302031D4D2A4A085202031D4D2A4908D2
:102490005102031D4D2A48085002031C502A512A9C
:1024A0005A2A5A174808D0024908D13B4A08D23B59
:1024B0004B08D33B01302000C20042082100DC075A
:1024C0001A305C02031C652A662A202A530852042B
:1024D0005104500403196D2A6E2A872A5714872A3B
:1024E0000130CC35CD0DCE0DCF0D890B712ADA1F01
:1024F0007A2A7B2A7C2A4C140130D735D80DD90D85
:10250000DA0D890B7D2AFF30D507FF30D63DCE1F6F
:102510008A2A8B2A702ADC01DA1F8F2A902AB62A8F
:10252000FF3057052000C200FF3021005805200071
:10253000C300FF30210059052000C4007F30210076
:102540005A052000C5004508440443044204031909
:10255000AA2AAB2AAF2A2100DC01DC0AB62A210014
:102560004C1CB32AB42AB62ADC01DC0A5C08031925
:10257000BA2ABB2AF12A0130CC070030CD3D003009
:10258000CE3D0030CF3D4F1CC62AC72AF12A4C0849
:102590002000C20021004D082000C30021004E0889
:1025A0002000C40021004F082000C5000130C600F3
:1025B000C537C40CC30CC20CC60BD82A4508210071
:1025C000CF00200044082100CE0020004308210055
:1025D000CD00200042082100CC000130D50700309A
:1025E000D63D5608803A2000C20080304202031DCA
:1025F000FC2AFF3021005502031CFF2A002B0D2B63
:10260000FF302100D5000030D6000030CF00003070
:10261000CE000030CD000030CC0021005608803ABA
:102620002000C20080304202031D192B013021001E
:10263000550203181C2B1D2B292B2100D501D60177
:102640000030CF000030CE000030CD000030CC0094
:10265000D401210055082000C20042082100DB00FF
:102660005B1C332B342B362BCE173C2B7F302000BA
:10267000C20042082100CE055B362000C200CF30E8
:1026800086000030870042088100210054082000A5
:10269000C20042082100CF044F08CB004E08CA00F8
:1026A0004D08C9004C08C80008002100DB012000CB
:1026B0004408860045088700433101082100D30003
:1026C00053082100DA0020004408860045088700EE
:1026D000423101082100D30053082100DC00D22F31
:1026E0002000440886004508870045310108200085
:1026F0005406031D7C2B7D2BC12B20004408860033
:10270000450887004631010820005506031D892B26
:102710008A2BC12B200044088600450887004731DA
:10272000010820005606031D962B972BC12B200075
:1027300044088600450887004831010820005706F4
:10274000031DA32BA42BC12B2000440886004508A1
:1027500087004931010820005806031DB02BB12B1A
:10276000C12B200044088600450887004A31010833
:1027700020005906031DBD2BBE2BC12BB43158249C
:1027800093312100BA01FF2F20004408860045083C
:1027900087004531010820005406031DD02BD12BA2
:1027A000382C20004408860045088700463101087F
:1027B00020005506031DDD2BDE2B382C200044089D
:1027C0008600450887004731010820005606031D92
:1027D000EA2BEB2B382C20004408860045088700A4
:1027E0004831010820005706031DF72BF82B382C21
:1027F0002000440886004508870049310108200070
:102800005806031D042C052C382C20004408860093
:10281000450887004A31010820005906031D112C84
:10282000122C382C200044088600450887004B31C4
:1028300001082100D30053082100DD0021005D08BC
:10284000B53162259331B33021005D06031D292C7B
:102850002A2C2F2C0030B5314E259331332C0130EA
:10286000B5314E25933155302200C6001330C700D4
:102870002100BA01FF2F2000440886004508870088
:102880004531010820005406031D472C482C122D09
:1028900020004408860045088700463101082000D2
:1028A0005506031D542C552C122D2000440886007B
:1028B000450887004731010820005606031D612C9A
:1028C000622C122D200044088600450887004831FC
:1028D000010820005706031D6E2C6F2C122D2000BE
:1028E0004408860045088700493101082000580641
:1028F000031D7B2C7C2C122D2000440886004508EB
:1029000087004A31010820005906031D882C892CB4
:10291000122DB431A8249331200035082100E000A5
:10292000200034082100DF0021005F086004031943
:102930009A2C9B2C102D21005F08860060088700D0
:1029400001308100B431322493312100D3002100C1
:102950005F08023E2100D40000302100603D2100CC
:10296000D5005408860055088700530881002000D0
:102970004408860045088700423101082100D30041
:1029800021005F08013E2100D40000302100603D9D
:102990002100D5005408860055088700530881009F
:1029A00021005F08033E2100D30000302100603D7C
:1029B0002100D4005308860054088700223081008B
:1029C000B431322493312100D30021005F08053E49
:1029D0002100D40000302100603D2100D5005408C2
:1029E0008600550887005308810021005F08043ED7
:1029F0002100D30000302100603D2100D4005308A5
:102A00008600540887000130810021006008200002
:102A1000BE0021005F082000BD009931CF21933115
:102A20002100BA012100BA01FF2F2100BA01FF2FB6
:102A30002100BA01FF2F20004408860045088700C6
:102A4000453101082100D30053082100B5002000C2
:102A50004408860045088700463101082100D3005C
:102A600053082100B40021005C082100D300530862
:102A70002100B2002100B301B30A2100BA01FF2FE7
:102A800021005C082100D30053082100B000200081
:102A90004408860045088700453101082100D3001D
:102AA00053082100AF002000440886004508870035
:102AB000463101082100D30053082100AE00210057
:102AC000DE018C2D21005E082100D300D4015308C3
:102AD000200044072100D50054082000453D210076
:102AE000D600550886005608870047310108D700F0
:102AF00021005E08613E2100D800D9010130D93D96
:102B000058088600590887005708810001302100C5
:102B1000D30053082100DE0721002E0821005E02A9
:102B2000031C932D942D622D2100B101B10A2100C7
:102B3000BA01FF2F200044088600450887004B316A
:102B400001082100D30053082100DB0021005B08AD
:102B5000B531582593312100BA01FF2F20004408D8
:102B60008600450887004531010820005406031DF2
:102B7000BA2DBB2D0E2E2000440886004508870084
:102B80004631010820005506031DC72DC82D0E2E05
:102B900020004408860045088700473101082000CE
:102BA0005606031DD42DD52D0E2E20004408860078
:102BB000450887004831010820005706031DE12D14
:102BC000E22D0E2E2000440886004508870049317A
:102BD000010820005806031DEE2DEF2D0E2E2000BB
:102BE00044088600450887004A310108200059063C
:102BF000031DFB2DFC2D0E2E2000440886004508E9
:102C000087004B3101030319062E082E0130092ECF
:102C100000302100D30053082100B8002100BA0180
:102C2000FF2F200044088600450887004531010831
:102C300020005406031D1D2E1E2E712E2000440858
:102C40008600450887004631010820005506031D0F
:102C50002A2E2B2E712E200044088600450887005E
:102C60004731010820005606031D372E382E712EDD
:102C700020004408860045088700483101082000EC
:102C80005706031D442E452E712E20004408860051
:102C9000450887004931010820005806031D512EC0
:102CA000522E712E200044088600450887004A31C4
:102CB000010820005906031D5E2E5F2E712E200094
:102CC00044088600450887004B3101030319692E2B
:102CD0006B2E01306C2E00302100D30053082100F0
:102CE000B9002100BA01FF2FB431A824933120008C
:102CF00035082100E000200034082100DF00210019
:102D00005F0860040319852E862ECC2F21005F08F2
:102D100086006008870001308100B431322493318D
:102D20002100D30021005F08023E2100D4000030C2
:102D30002100603D2100D500540886005508870019
:102D4000530881002000440886004508870042316E
:102D500001082100D30021005F08013E2100D400BA
:102D600000302100603D2100D50054088600550840
:102D700087005308810021005F08033E2100D30033
:102D800000302100603D2100D40053088600540823
:102D90008700F930810020005A0886005B08870010
:102DA00001082100D30021005F08053E2100D40066
:102DB00000302100603D2100D500540886005508F0
:102DC00087005308810020005A0886005B088700AE
:102DD000413101082100D30021005F08063E210097
:102DE000D40000302100603D2100D5005408860049
:102DF000550887005308810020005A0886005B08A8
:102E00008700423101082100D30021005F08073EFE
:102E10002100D40000302100603D2100D50054087D
:102E20008600550887005308810020005A08860054
:102E30005B088700433101082100D30021005F08AF
:102E4000083E2100D40000302100603D2100D50063
:102E500054088600550887005308810021005F0848
:102E6000093E2100D30000302100603D2100D40044
:102E700053088600540887000130810021006C0847
:102E800086006D08870001082100D30021005F083B
:102E90000A3E2100D40000302100603D2100D50011
:102EA00054088600550887005308810021006C08EB
:102EB00086006D088700413101082100D300210000
:102EC0005F080B3E2100D40000302100603D21004E
:102ED000D50054088600550887005308810021005A
:102EE0005F080C3E2100D30000302100603D21002E
:102EF000D400530886005408870002308100210066
:102F00006A0886006B088700423101082100D3005F
:102F100021005F080D3E2100D40000302100603DFB
:102F20002100D50054088600550887005308810009
:102F300021006A0886006B088700433101082100E0
:102F4000D30021005F080E3E2100D4000030210094
:102F5000603D2100D50054088600550887005308BD
:102F6000810021005F08043E2100D30000302100D1
:102F7000603D2100D40053088600540887000A30C1
:102F80008100210060082000BE0021005F082000B1
:102F9000BD009931CF2193312100BA01FF2F2100CB
:102FA000BA01FF2F21005A082100D300D401540890
:102FB000003A0319DC2FCF2F5308103A0319702B56
:102FC000303A0319C42B013A03193B2C113A031967
:102FD000152D023A0319182D0A3A03191B2D023A2E
:102FE0000319402DCA3A03199A2D013A0319AE2D3F
:102FF000023A0319112E0A3A0319742ECF2F080032
:10300000210026080319052806280F282100440856
:1030100003190B280C280F28B531302598312100D1
:10302000A60108002000BC003C0803191828192834
:103030002D28B71F1C281D282D283409BE0035094E
:10304000BF003609C0003709C100BE0A0319BF0A14
:103050000319C00A0319C10A35283708C100360808
:10306000C0003508BF003408BE00370836043504F8
:103070003404031D3C283D2846280030B7000030AA
:10308000B6000030B5000030B400BE289630B8005D
:103090003808BD0056280130B8003808BD07013097
:1030A000C136C00CBF0CBE0C890B5028FE30410548
:1030B000031D5B285C284B2870280130B8003808B5
:1030C000BD070130BE070030BF3D0030C03D0030BD
:1030D000C13D0130C136C00CBF0CBE0C890B6A2843
:1030E000FF304105031D752876285D2880280130B2
:1030F000BD020130BE35BF0DC00DC10D890B7A2850
:10310000C01B832884288A2802303D02031889289E
:103110008A2877283D188D288E289628FF30BE05EE
:10312000FF30BF057F30C005FF30C1050310BD0C67
:103130003D08B800B901BA01BB011830B835B90D66
:10314000BA0DBB0D890B9E283808BE043908BF0490
:103150003A08C0043B08C1043C080319B028B12850
:10316000B628B71FB428B528B628C1174108B7003C
:103170004008B6003F08B5003E08B4000800210032
:10318000DF01DF302100CD000030CE0062302100B1
:10319000DC005C082100CF002100D001D00AA03162
:1031A0003520983121005F0A031DD728D828F1283F
:1031B000DF302100CD000030CE002100CF01CF0A4A
:1031C0002100D001D00AA0313520983121005F08BC
:1031D0002100DC005C082000C4006230A831CF2050
:1031E000983121005A08023E2100DC000030210005
:1031F0005B3D2100DD005C0886005D088700210042
:103200005F088100DF302100CD000030CE00643047
:103210002100DC005C082100CF002100D001D00A91
:10322000A0313520983121005F0A031D1829192982
:103230003529DF302100CD000030CE0003302100E1
:10324000DC005C082100CF002100D001D00AA031B1
:103250003520983121005F082100DC005C08200047
:10326000C4006430A831CF20983121005A08033EB1
:103270002100DC00003021005B3D2100DD005C0806
:1032800086005D08870021005F088100DF30210093
:10329000CD000030CE0066302100DC005C0821004B
:1032A000CF002100D001D00AA03135209831210073
:1032B0005F0A031D5C295D297929DF302100CD00DB
:1032C0000030CE0004302100DC005C082100CF007B
:1032D0002100D001D00AA0313520983121005F08AB
:1032E0002100DC005C082000C4006630A831CF203B
:1032F000983121005F08031D7E2980290130812932
:1033000000302100DC0021005A08013E2100DD00D0
:10331000003021005B3D2100DE005D0886005E0874
:1033200087005C088100DF302100CD000030CE0036
:1033300061302100DC005C082100CF002100D001B9
:10334000D00AA0313520983121005F0A031DA92938
:10335000AA29C629DF302100CD000030CE0005307B
:103360002100DC005C082100CF002100D001D00A40
:10337000A0313520983121005F082100DC005C0875
:103380002000C4006130A831CF20983121005A08B4
:1033900086005B08870021005F08810008007A3002
:1033A000860024308700FF30C03F7A30860024300A
:1033B0008700413181017C30860024308700FF3056
:1033C00081007D30860024308700A53081002000F8
:1033D0003D0886003E08870001082100C8007E30B5
:1033E0008600243087004808810020003D088600C0
:1033F0003E088700413101082100C8007F30860067
:10340000243087004808810020003D0886003E08DF
:103410008700423101082100C80080308600243036
:1034200087004808810020003D0886003E0887008C
:10343000433101082100C800813086002430870014
:103440004808810020003D0886003E08870044317E
:1034500001082100C8008230860024308700480817
:1034600081002000C201652A200042082100C80016
:10347000C901480820003D072100CA004908200072
:103480003E3D2100CB004A0886004B0887004531AD
:103490000108CC00200042082100CD00CE0183307D
:1034A000CF002430D0004D084F07D1004E08503DCA
:1034B000D20051088600520887004C088100013074
:1034C0002100C80048082000C20720003D088600EF
:1034D0003E0887004431010820004202031C712A83
:1034E000722A342A2000BF01C00120003D08860056
:1034F0003E08870044310108093E2100C800480801
:103500002000C30003302100C80048082000C1008B
:10351000A12A200041087A3E860087012430873D99
:1035200001082100C800C90148082000BF07210088
:1035300049082000C03D01302100C8004808200093
:10354000C1072000430820004102031CA82AA92A21
:10355000892A200040082100C800200043087A3E44
:103560002100C900CA012430CA3D490886004A0822
:10357000870048088100200043082100C800C901D5
:103580007B30CA002430CB0048084A07CC004908E9
:103590004B3DCD004C0886004D08870020003F08B9
:1035A00081007A302000B7002430B80020004308A2
:1035B000023E2100C80048082000B900AA31A62216
:1035C0009931003008002300A2012300A301230049
:1035D000A4012300A501031020000E1C03140030D9
:1035E000093D2000C70047082300A2040310200063
:1035F0000E1D03140030093D2000C70047082300BA
:10360000A304031020000C1F03140030093D200008
:10361000C70047082300A404031020008E1C0314D5
:103620000030093D2000C70047082300A504F03002
:103630002000C70047082300A000F0302000C7008A
:1036400047082300A10001302300A1022300210824
:10365000031D2B2B2C2B232B01302300A002200831
:10366000031D332B342B232B230022080319392B62
:103670003A2B482B20000E183E2B3F2B432B2100CA
:10368000A501A50A452B2100A5012300A201F82BC5
:103690002300240803194D2B4E2B822B23002508D1
:1036A0000319532B542B822B20000C1B582B592B06
:1036B0005D2B2100A301A30A5F2B2100A3012000A1
:1036C0008E18632B642B682B2100A201A20A6A2B9F
:1036D0002100A2012100230803196F2B702B792BE5
:1036E000210022080319752B762B792B2100A101CB
:1036F000A10A2300A4012300A5012100A3012100A8
:10370000A201F82B230023080319872B882BBC2B3D
:103710002300250803198D2B8E2BBC2B20000E199E
:10372000922B932B972B2100A401A40A992B210003
:10373000A40120008E189D2B9E2BA22B2100A201FC
:10374000A20AA42B2100A201210024080319A92BFD
:10375000AA2BB32B210022080319AF2BB02BB32BBC
:103760002100A001A00A2300A3012300A50121003C
:10377000A4012100A201F82B230023080319C12B67
:10378000C22BD02B20000E19C62BC72BCB2B210010
:10379000A401A40ACD2B2100A4012300A301F82B2E
:1037A000230024080319D52BD62BE42B20000C1B57
:1037B000DA2BDB2BDF2B2100A301A30AE12B210055
:1037C000A3012300A401F82B230025080319E92BEA
:1037D000EA2BF82B20008E18EE2BEF2BF32B210079
:1037E000A201A20AF52B2100A2012300A501F82BBA
:1037F000AF3134279A31080021005D0886005E0849
:103800008700403F2300A400413FA50021005D0840
:1038100086005E0887004231403F2300A600413FFA
:10382000A700183086002430870023002408C03FFA
:103830002508C13F78308600243087002300260801
:10384000C03F2708C13F42302100CB004030CA00B2
:103850000030C9000030C8002300260823002402DD
:103860002000B400230027082300253B2000B500DA
:10387000B601B7010030983112209B312000370883
:103880002100CF00200036082100CE00200035089E
:103890002100CD00200034082100CC0091315821B6
:1038A0009B3121004B082300A30021004A0823007C
:1038B000A200210049082300A1002100480823009C
:1038C000A000230023082000B700230022082000C6
:1038D000B600230021082000B500230020082000A6
:1038E000B400883101209B31200035082200C5003A
:1038F000200034082200C40078308600243087007D
:10390000403F2100DF00413FE0005F082000B4009D
:10391000210060082000B500B601B70100309831E1
:1039200012209B31200037082300AB00200036080E
:103930002300AA00200035082300A9002000340835
:103940002300A80030302300AC000030AD0023007D
:10395000AD1FAB2CAC2CAD2C162D23002B0820005A
:10396000B70023002A082000B60023002908200001
:10397000B500230028082000B400883101209B31C5
:1039800023002D082100E00023002C082100DF0087
:10399000DF35E00D1830E1002430E2005F086107F8
:1039A00086006008623D870020003408C03F35086B
:1039B000C13F23002B082000B70023002A08200065
:1039C000B600230029082000B500230028082000A5
:1039D000B400230023082000BB002300220820009D
:1039E000BA00230021082000B9002300200820008D
:1039F000B800883186209B31200037082300AB00B7
:103A0000200036082300AA00200035082300A90062
:103A1000200034082300A800FF302300AC07FF304B
:103A2000AD3D2300AD1F152D162DAD2C0800210036
:103A3000330803191C2D1D2DDB2D2100DE01B431AF
:103A4000A8249D31200035082100E0002000340822
:103A50002100DF0021005F0860040319302D312DA3
:103A6000D02D2130210034020318372D382D422D5E
:103A7000210034082100DA005A082100DE0021006C
:103A8000B3014B2D20302100B40220302100DA0098
:103A90005A082100DE0021005F08860060088700C8
:103AA00001308100B43132249D312100DA0021003F
:103AB0005F08023E2100DB0000302100603D210054
:103AC000DC005B0886005C0887005A088100210042
:103AD0005F08013E2100DA0000302100603D210036
:103AE000DB005A0886005B0887002100320881004D
:103AF00021005F08033E2100DA0000302100603D14
:103B00002100DB005A0886005B08870039308100FD
:103B100021005F08053E2100DA0000302100603DF1
:103B20002100DB005A082100CD0021005B082100A4
:103B3000CE002100350821002C072100DC005C08A4
:103B40002100CF0021005E082100DD005D0821007A
:103B5000D000A03135209D3121005F08043E2100B6
:103B6000DA0000302100603D2100DB005A088600A9
:103B70005B08870021005E08810021003308031DD7
:103B8000C22DC32DCA2D2100AC012100B40121009A
:103B9000B301D02D20302100DA005A082100AC07F3
:103BA000210060082000BE0021005F082000BD0049
:103BB0009931CF219D31210031080319E02DE12DEC
:103BC0007E2E61302100C8000130C90021002E087E
:103BD0002100DA005A082100CA0021002F0887318D
:103BE000CE279D31B431A8249D3120003508210015
:103BF000E200200034082100E10021006108620495
:103C00000319032E042E732E21006108860062081A
:103C1000870001308100B43132249D312100DA0067
:103C200021006108023E2100DB0000302100623DDE
:103C30002100DC005B0886005C0887005A088100D0
:103C400021006108013E2100DA0000302100623DC0
:103C50002100DB005A0886005B088700210030083D
:103C6000810021006108033E2100DA0000302100BC
:103C7000623D2100DB005A0886005B0887003B306C
:103C8000810021006108053E2100DA00003021009A
:103C9000623D2100DB005A0886005B088700210096
:103CA0002E08810021006108043E2100DA00003066
:103CB0002100623D2100DB005A0886005B08870076
:103CC000013081002100B1012100B0012100AF01CC
:103CD0002100AE0100302200E4000030E30000309B
:103CE000E2000030E100210062082000BE00210057
:103CF00061082000BD009931CF219D310800B43109
:103D00003B249E312100C80048082100CC0004302B
:103D100021004C06031D8D2E8E2E912E200049175A
:103D2000932E20004913063021004C06031D992EC6
:103D30009A2E9D2E200048149F2E200048100530FA
:103D400021004C06031DA52EA62EA92E22008C13A1
:103D5000AB2E22008C17A9312A219E312100C800E8
:103D600048082100CB0021004B082100C800023088
:103D7000C836890BB82E4808C90049082100CA0076
:103D800021004B0801392100C80048082100CD005E
:103D90002000C801C901C92F21004D080319D12EE7
:103DA000D22EDC2EFC3020004A052000C8007F30D7
:103DB00020004B052000C90020004914FF2F2100DE
:103DC0004D080319E42EE52EEF2EFC3020004A05A5
:103DD0002000C8007F3020004B052000C9002000D3
:103DE000C914FF2F21004D080319F72EF82E022FBA
:103DF000FC3020004A052000C8007F3020004B0521
:103E00002000C90020004915FF2F21004D0803198B
:103E10000A2F0B2F152FFC3020004A052000C80068
:103E20007F3020004B052000C9002000C915FF2F5E
:103E300021004D0803191D2F1E2F282FFC302000B4
:103E40004A052000C8007F3020004B052000C90033
:103E500020004916FF2F21004D080319302F312F64
:103E60003B2FFC3020004A052000C8007F30200096
:103E70004B052000C9002000C916FF2F21004D0866
:103E80000319432F442F4E2FFC3020004A052000F9
:103E9000C8007F3020004B052000C9002000C81456
:103EA000FF2F21004D080319562F572F612FFC308B
:103EB00020004A052000C8007F3020004B0520006C
:103EC000C90020004815FF2F21004D080319692F54
:103ED0006A2F742FFC3020004A052000C8007F3074
:103EE00020004B052000C9002000C815FF2F21002D
:103EF0004D0803197C2F7D2F872FFC3020004A05A9
:103F00002000C8007F3020004B052000C9002000A1
:103F10004816FF2F21004D0803198F2F902F9A2F3D
:103F2000FC3020004A052000C8007F3020004B05EF
:103F30002000C9002000C816FF2F21004D080319DA
:103F4000A22FA32FAD2FFC3020004A052000C8006F
:103F50007F3020004B052000C90020004817FF2FAC
:103F600021004D080319B52FB62FC02FFC302000BB
:103F70004A052000C8007F3020004B052000C90002
:103F80002000C817FF2FFC302000C8007F30C90078
:103F9000FF2F21004A082100C800C9014908003A42
:103FA0000319D32FC32F4808003A0319CC2E013A26
:103FB0000319DF2E033A0319F22E013A0319052FD4
:103FC000073A0319182F013A03192B2F033A031943
:103FD0003E2F013A0319512F0F3A0319642F013A6A
:103FE0000319772F033A03198A2F013A03199D2FDA
:103FF000073A0319B02FF33A0319C32FC32F080050
:104000002200C3151028B4317224A0313428B431F1
:104010001D24A03103303428B4317724A031342852
:1040200022002D082000AE0022002C082000AD0048
:10403000220021088A0020080A00A0312000AF00D9
:10404000B0013008003A031926280C282F08013A3D
:1040500003190C28033A03190328013A031903280A
:10406000073A031907280C28080021002D08031916
:104070003A283B287E28803021004F02031841282F
:1040800042287E282000C60175282000460821000D
:10409000D100D20121004F08983E2100D300D40165
:1040A0002330D43D5108530786005208543D870001
:1040B0000108D500200046082100D600D701560887
:1040C00021004D072100D800570821004E3D210056
:1040D000D90058088600590887005508810001302A
:1040E0002100D10051082000C607210050082000FF
:1040F0004602031C7C287D2845289D2821004F0866
:104100002100D10051082000C10021004E082000EC
:10411000C30021004D082000C200210050082100EA
:10412000D200D30152082000C4002100530820000F
:10413000C5005030AB316C23A031080022008C0147
:1041400022008D0122008E010830210090004F30A6
:1041500021008C00CE3021008D009F3021008E0088
:1041600023008E010E3023008D0023008C012400DB
:10417000900124008D0124008C0124008E01210077
:10418000951725008C0125008D0125008E01FF303B
:1041900026008C00FF3026008D00FF3026008E00A8
:1041A000FF3027008C00FF3027008D00FF302700F4
:1041B0008E0008302700900027001310270093106E
:1041C00027001214270092142700111427009114BD
:1041D00009302000B4003430B500B5311425A031C9
:1041E00000302000B4000830B500B5311D25A031E5
:1041F0008B1517303C00A40014303C00A100103097
:104200003D00A30011303D00A40014303D00A60085
:1042100013303C00A0000800D53086002430870011
:1042200024002408C03F25082300A000D6308600C3
:104230002430870020088100240026082300A000E5
:10424000D73086002430870020088100240027080A
:104250002300A000D8308600243087002008810089
:10426000240028082300A000D930860024308700CD
:10427000200881002100E30169292100630823004F
:10428000A000A1012930A2000230A30020082207CB
:1042900086002108233D87000108A400210063084F
:1042A0002300A500A601DA30A7002430A8002508C5
:1042B0002707A9002608283DAA00290886002A0801
:1042C00087002408810001302300A000200821007D
:1042D000E3072400280821006302031C70297129C8
:1042E0003D2924302100E200D530E10021006208A0
:1042F0002000C500210061082000C40022004708FA
:104300008A0046080A00A1310800B7319B27A13175
:10431000B4314124A131B5316C25A1318B170B1774
:104320000A30B6311B26A131A931FA21A131A231BF
:104330009522A131AF319A27A1319E317F26A1313B
:10434000A431EC24A131B6312E26A1316400210024
:104350003A03031DAC29AD29B029A1310C21A131AB
:1043600020004D03031DB529B629D529B431A22457
:10437000A131200035082200EE0020003408220080
:10438000ED0022006E082000B50022006D0820001C
:10439000B40021003E082100E70067082000B600B5
:1043A000A931C321A1312000CD019A31E322A131ED
:1043B000210039080319DD29DE29E829FE30210012
:1043C000E70067082000C4004130A831CF20A131A8
:1043D000210038080319ED29EE29F3290100000016
:1043E0000000000000009E317F26A131A431EC24A2
:1043F000A131A3313123A131AB31B923A1319D3199
:104400001725A131A6298731CB2F20003408350488
:1044100003190B2A0C2A942A200034088600350838
:1044200087000130810020003408023E2000BC00DB
:1044300000302000353D2000BD003C0886003D08CE
:10444000870020003608810020003408013E20004B
:10445000BC0000302000353D2000BD003C08860037
:104460003D08870020003708810020003408033E03
:104470002000BC0000302000353D2000BD003C087D
:1044800086003D0887002000380881002000C50113
:104490007B2A200045082000BC00BD013C0820000C
:1044A0003907860020003D0820003A3D87000108BA
:1044B0002000BE00200045082000BF00C0013F08CA
:1044C000200034072000C10040082000353D2000B6
:1044D000C2004108053EC3000030423DC40043080D
:1044E0008600440887003E08810001302000BC009F
:1044F0003C082000C50720003B0820004502031CA3
:10450000822A832A492A20003408043E2000BC0065
:1045100000302000353D2000BD003C0886003D08ED
:10452000870020003B0881000800B6319626A231A2
:10453000A8315320A231C7302100CD000030CE0079
:1045400068302100DC005C082100CF002100D00190
:10455000D00AA0313520A2312100470A031DB12A1B
:10456000B22ABF2A2100C701210047082100DC0030
:104570005C082000C4006830A831CF20A23121009F
:1045800047082100DC005C082100AB00EE30210070
:10459000CD000030CE0060302100DC005C0821003E
:1045A000CF002100D001D00AA0313520A231210056
:1045B0006E0A031DDC2ADD2AEE2AB3302100DC005E
:1045C0005C082100EE0021006E082100DC005C0880
:1045D0002000C4006030A831CF20A23121006E0835
:1045E0002100DC005C082100AA002100DD01DD3093
:1045F0002100CD000030CE006C302100DC005C08D2
:104600002100CF002100D001D00AA0313520A231F5
:1046100021005D0A031D0D2B0E2B1C2B2100A9016F
:10462000210029082100DC005C082000C4006C3057
:10463000A831CF20A231292B21005D08031D212B99
:10464000232B0130242B00302100DC005C082100EA
:10465000A900210029082100DC005C082100A80035
:1046600008002100430821003F060319382B392B8D
:10467000602B21003F082100DA005A082000C40006
:104680006130A831CF20A331043021003F06031D43
:104690004A2B4B2B4F2B90310A20A331592B06303C
:1046A00021003F06031D552B562B592B90310A2014
:1046B000A33121003F082100DA005A082100C3007D
:1046C000063021004306031D662B672B852B210036
:1046D000270820004C0603196E2B6F2B812B20001E
:1046E0004C082100DA005A082000C4006730A831C5
:1046F000CF20A33120004C082100DA005A08210005
:10470000A70090310A20A331F32B21004508210096
:10471000410603198C2B8D2BAC2B21004108210065
:10472000DA005A082000C4006230A831CF20A3313B
:10473000043021003F06031D9E2B9F2BA22B90319E
:104740000A20A331210041082100DA00C53086008B
:10475000003087005A0881002100460821004206E7
:104760000319B32BB42BD32B210042082100DA000C
:104770005A082000C4006430A831CF20A33104308F
:1047800021003F06031DC52BC62BC92B90310A20E3
:10479000A331210042082100DA00C6308600003033
:1047A00087005A08810021004008210044060319AF
:1047B000DA2BDB2BF02B210040082100DA005A080D
:1047C0002000C4006630A831CF20A331210040086A
:1047D0002100DA00C4308600003087005A088100CA
:1047E00090310A20A33108002000C101C2017830B5
:1047F000860024308700403F2000BF00413FC000BA
:10480000FF302000B60036082000BE002000BC01AA
:10481000BD0120308400B8308500003F2000B60084
:10482000013FB700360820003F022000B8003708DB
:104830002000403B2000B900390820003502031D4C
:10484000252C2000380820003402031C282C292C99
:104850004E2C20308400B8308500003F2000B60088
:10486000013FB7001830860024308700403FB80071
:10487000413FB90036083807BA003708393DBB0058
:104880002000350820003B02031D4A2C200034087C
:1048900020003A0203184D2C4E2C502CFF30EB2CEC
:1048A00030302000C3000030C4002000C41F592C49
:1048B0005A2C5B2CE92C200044082000B700200073
:1048C00043082000B600B635B70D1830B8002430C4
:1048D000B9003608380786003708393D8700403F61
:1048E0002000C100413FC2002000420820003506E0
:1048F000031D7E2C2000410820003406031D812C5E
:10490000822C8A2C200043082000B60036082000A4
:10491000BE00E92C2000420820003502031D942C23
:1049200020004108200034020318972C982CD72C23
:1049300020003F08200041022000B600200040086F
:104940002000423B2000B700B736B60C36082000E6
:10495000BC00200037082000BD003C0820004102B8
:104960002000B60020003D082000423B2000B70098
:104970002000350820003702031DC22C2000340817
:1049800020003602031CC52CC62CCF2C2000430867
:10499000013E2000B60036082000BE00E92C2000B1
:1049A00043082000B60036082000BE00E92C200095
:1049B00042082000C000200041082000BF00FF3056
:1049C0002000C307FF30C43D2000C41FE82CE92CA1
:1049D0005B2C20003E0808002000490820004B0600
:1049E000031DF62C2000480820004A060319F92C64
:1049F000FA2CE82D2000BA012000B8012000490857
:104A00002000B700200048082000B600083024002D
:104A100095003D002308E039A3003D002408E0395B
:104A2000A4003C00A0013C00A101EF302000B40034
:104A3000340821008E05F7302000B400340821002E
:104A40008E05F7302000B400340822008E050630B1
:104A50002000B40034082000BA0030302000B40038
:104A600034082000B80001302000B80220003808C7
:104A7000031D3B2D3C2D332D01302000BA023A0896
:104A8000031D432D442D332D2000B901103020008B
:104A90003902031C4C2D4D2D4E2DAC2D2000370816
:104AA0002000B500200036082000B4002000390A9C
:104AB00020005C2DB536B40C890B5A2D3418612DAD
:104AC000622D692DEF302000B400340822008E05DD
:104AD0006B2D22000E161A302000B400340820007E
:104AE000BA0001302000BA0220003A08031D792DD7
:104AF0007A2D712D22008E1506302000B400340866
:104B00002000BA0030302000B40034082000B80083
:104B100001302000B80220003808031D902D912D8F
:104B2000882D01302000BA023A08031D982D992DD6
:104B3000882DF7302000B400340822008E050130A3
:104B40002000B40034082000B907103020003902DA
:104B5000031CAB2DAC2D4E2DEF302000B4003408DB
:104B600022008E0522008E161A302000B400340870
:104B70002000BA0001302000BA0220003A08031DCC
:104B8000C22DC32DBA2DDF302000B400340822001E
:104B90008E053D002308E0391038A3003D002408AD
:104BA000E0391138A40013303C00A00014303C0060
:104BB000A10021000E1621008E152830240095003A
:104BC000200049082000CB00200048082000CA002F
:104BD0000800B730860001308700D23084000030F2
:104BE000850010302100CD0016001A00CD0BF42DE9
:104BF0002100E201E30121006308803A2100CD0099
:104C000080304D02031D072E063021006202031C76
:104C10000A2E0B2E0C2E422E2100620821004B077B
:104C200086002100630821004C3D87000108210017
:104C3000CD00D230CE000030CF002100620821002C
:104C40004E07D0002100630821004F3DD1005008DD
:104C50008600510887004D08810001302100E207DD
:104C60000030E33D21006308803A2100CD00803010
:104C70004D02031D3E2E063021006202031C412E10
:104C8000422E0C2E20005A0886005B08870001087F
:104C90002100CD00D8308600003087004D0881000B
:104CA00020005A0886005B08870041310108210076
:104CB000CD00D9308600003087004D0881002000EB
:104CC0005A0886005B088700423101082100CD00A8
:104CD000DA308600003087004D08810020005A0835
:104CE00086005B088700433101082100CD00DB30DE
:104CF0008600003087004D088100DC3086000030DF
:104D000087000130810021006C0886006D08870053
:104D100001082100CD00DD308600003087004D08FD
:104D2000810021006C0886006D0887004131010870
:104D30002100CD00DE308600003087004D08810064
:104D4000DF308600003087000230810021006A08D1
:104D500086006B088700423101082100CD00E03059
:104D60008600003087004D08810021006A08860017
:104D70006B088700433101082100CD00E130860037
:104D8000003087004D088100210049082000B5004F
:104D9000210048082000B40021004A082100CD006D
:104DA0004D082000B6000F302100CE004E08200034
:104DB000B70008302100CF004F082000B8002100C4
:104DC0004C082000BA0021004B082000B900103028
:104DD0002100D00050082000BB00A2310522A531DF
:104DE00008002000A400D82F2000240A031DF92E5B
:104DF000FA2EFC2E0130FF2F0030FF2F2000240858
:104E0000031D032F042F062F0130FF2F0030FF2F2B
:104E10002000240A031D0D2F0E2F102F0130FF2F0D
:104E20000030FF2FA53020002406031D182F192F56
:104E3000202FA5302200D6070030D73D0130FF2FAC
:104E40000030FF2FB4310E24A631200024060319B0
:104E50002A2F2B2F342F0F30200024060319312F37
:104E6000322F342F0030FF2F200024082000A10013
:104E7000A20121082200D607200022082200D73DE7
:104E80000130FF2F513020002402031C482F492FEE
:104E90004B2F0030FF2F200024082000A100210804
:104EA0002100BD00200024082000A100A20121084B
:104EB0002200D607200022082200D73D0130FF2F14
:104EC000FF302000A10021082100BD072100BD1BEB
:104ED0006A2F6B2F782F200024082000A100A20148
:104EE00021082200D607200022082200D73DD62F15
:104EF000200024082000A100A20120004E08013C4F
:104F00002000A3000230A335FF3E031D832F23356D
:104F1000890A8C2FA135A20D890B8A2F2108220026
:104F2000D807200022082200D93D00302000A2002E
:104F300020004E08013C2000A100031CA203210810
:104F40002204031DA42FA52FD02F220057082200D2
:104F50005906031DAF2F22005608220058060319D8
:104F6000B22FB32FC12F2000D0012200D801D901C8
:104F70002200D601D7012000CE012000CD01003053
:104F8000FF2F2200D801D9012200D601D70120002D
:104F9000CE0101302000A10021082000CD00D62F35
:104FA00001302000A10021082000CE070130FF2F92
:104FB000200020082000A100A2012208003A0319C5
:104FC000E22F602F2108003A0319F42E013A031949
:104FD000FE2E033A0319082F013A0319122F073A3C
:104FE0000319342F013A0319222F033A0319342FDE
:104FF000013A0319342F0F3A0319422F602F08008A
:10500000FF34FF346534013467340134B334200095
:105010002D0886002E0887004231403F2000A00066
:10502000413FA10020002D0886002E088700403F48
:105030002000A200413FA300B631C026A8310030B5
:105040002000A900AA0000302000AB00AC00B6315F
:105050004226A831023008002000B4002000B5012B
:10506000B50A2200C3183528362850282200C31458
:105070002000B5012000340803193F2840284728A4
:105080004130860001308700013081004D284130D9
:1050900086000130870002308100B4312C24A83111
:1050A00020003508080067302100CD000130CE0017
:1050B00045302100DA005A082100CF0002302100DB
:1050C000DB005B082100D000A0313520A83165301D
:1050D0002100CD000130CE0047302100DA005A080F
:1050E0002100CF0002302100DB005B082100D0004E
:1050F000A0313520A83108002100DC01DC3021007E
:10510000CD000030CE0067302000C70047082100E6
:10511000CF002100D001D00AA0313520A8312100D4
:105120005C0A031D942895289C282100450820002E
:10513000C70047082100DC0021005A0886005B08F0
:10514000870021005C08810008005B3020005102CC
:105150000318AB28AC28CC2820005208953E8600C6
:1051600087012730873D010823009A000130200085
:10517000A00020082000D2075B3020005202031C50
:10518000C228C328C5282000D20101302000A00079
:1051900020082000D107CE2821001112080020008D
:1051A000C700200047082000C50045082000C100B6
:1051B000200044082000C60046082000C2005030ED
:1051C000AA316922A83121002D080319E828E9280D
:1051D000F82820004708983E2000C500C60123306B
:1051E000C63D450886004608870020004408810027
:1051F0000800B4312024A8312200431C00290129D1
:105200000F29B4319024A831003A0319082909293B
:105210000F2941308600013087000F3081002200C5
:1052200041082000B100B201B135B20D00303107A4
:105230008400B830323D8500013F8A00003F0A00FB
:10524000A9312000B30041308600013087003308C7
:1052500081000800B631F026A9312000370821006E
:10526000E900200036082100E8002100690820003C
:10527000C600210068082000C500B631F026A9311B
:10528000200037082100E900200036082100E8004E
:1052900068082000C507210069082000C63D2000DD
:1052A00046082000B500200045082000B400A331C6
:1052B000F423A93108002200431042308600013057
:1052C0008700023081006C29B4317224A9318E2903
:1052D000B4317724A9318E29220031082000AE0094
:1052E000220030082000AD00203086000130870009
:1052F0004431413F8A00403F0A00A9312000AF00FD
:10530000B0013008003A0319862968292F08023AAB
:1053100003196429013A0319642968290800210046
:10532000DE01DF0121005B082100CE0021005A08C8
:105330002100CD0014302100DC005C082100CF00EA
:1053400002302100DD005D082100D000A0313520B1
:10535000A93121005A08023E2100CD000030210071
:105360005B3D2100CE0012302100DC005C082100F2
:10537000CF0002302100DD005D082100D000A03107
:105380003520A93108002000BC01EB2920003C0891
:105390002000B700B801370820003407860020003D
:1053A00038082000353D870001082000B9002000A2
:1053B0003C08203E2000BA00BB010230BB3D3A0849
:1053C00086003B0887003908810001302000B700C3
:1053D00037082000BC072000360820003C02031CD0
:1053E000F229F329C62901302000B700370821002F
:1053F000BA0008002100C801803021004802031CC7
:10540000022A032A042A2D2A210048082000C40069
:1054100044082000C1005030AA31E522A931200003
:10542000C50021004808983E2000C600C70123306F
:10543000C73D46088600470887004508810064008C
:1054400001302000C40044082100C807803021003A
:105450004802031C2C2A2D2A042A2100AD01AD0A82
:1054600008002000B600200051080319382A392A04
:10547000332A2100111A3D2A3E2A432A20003608E9
:1054800023009A00662A2100111220005308953E3D
:105490002000B400B5012730B53D3408860035083A
:1054A000870020003608810001302000B400340855
:1054B0002000D3075B3020005302031C602A612ABE
:1054C000632A2000D30101302000D10221001116EF
:1054D00008002000C30020004308AE316F26AA3127
:1054E000003A0319742A752A6B2A60302000BD0027
:1054F0003730BE0042302000BF000030C000B6315F
:105500008126AA3141302000B4000030B5000130BE
:105510002000B6000030B700B631D826AA310030DE
:105520002000BD00BE0000302000BF00C000B6312A
:105530006C26AA31B4318B24AA31B731BA27AA31EB
:10554000013A0319A42AA52A9D2A08002000BC01BB
:1055500022000D1622008D16CE2A6400B431D52407
:10556000AA31003A0319B52AB62ACE2A20003C08EF
:105570002000BA00BB013A0820003707860020004F
:105580003B082000383D87000108AA313122AA31AA
:1055900001302000BA003A082000BC07200039087A
:1055A00020003C02031CD52AD62AAD2AD82A640042
:1055B000B4315424AA31003A0319DF2AE02AD72A49
:1055C00022000D1222008D1208002000C2002000CF
:1055D000C30120004208AE316F26AA31003A0319F8
:1055E000F22AF32AE92A26302000BD003730BE0017
:1055F00043302000BF000030C000B6318126AA3100
:1056000041302000B4000030B50001302000B60069
:105610000030B700B631D826AA3100302000BD00D6
:10562000BE0000302000BF00C000B6316C26AA3199
:10563000B4318B24AA31B731BA27AA31013A031900
:10564000222B232B1B2B200043080800200050088E
:10565000DF3E860087012630873D810123001D1D26
:10566000322B332B412B20005008DF3E8600870170
:105670002630873D8114220051088A0050080A0014
:10568000AB3123009D1C452B462B542B200050088A
:10569000DF3E860087012630873D011522004F0836
:1056A0008A004E080A00AB3120005008DF3E860019
:1056B00087012630873D010803195F2B602B682B7B
:1056C000230019082000A80028082000A9006B2B3F
:1056D000AC31AA24AB3108002100C80020004308E7
:1056E0002100CC00200042082100CB00200045080A
:1056F0002100CA00200044082100C90021004808F8
:10570000AE316F26AB31003A0319872B882B7E2BE5
:1057100007302000BD002830BE00C9302000BF0087
:105720000030C000B6318126AB3141302000B400DA
:105730000030B50001302000B6000030B700B631AF
:10574000D826AB3100302000BD00BE000030200064
:10575000BF00C000B6316C26AB31B4318B24AB3105
:10576000B731BA27AB31013A0319B72BB82BB02B9D
:1057700008002100470821002B060319C02BC12B6C
:10578000D32B210047082100C80048082000C4008E
:105790006830A831CF20AB31210047082100C80074
:1057A00048082100AB0021006E0821002A060319D9
:1057B000DA2BDB2BED2B21006E082100C8004808F6
:1057C0002000C4006030A831CF20AB3121006E082A
:1057D0002100C80048082100AA0021002908210052
:1057E00028060319F42BF52B072C2100290821008A
:1057F000C80048082000C4006C30A831CF20AB316D
:10580000210029082100C80048082100A80008003C
:105810002100911226302000B4002B30B500B531A4
:105820000225AC3121001112A5302000B40028302F
:10583000B500B5310B25AC31083023009F00903006
:1058400023009D00243023009E00403023009B0055
:10585000033023009C0008302000B4003430B50031
:10586000B431F024AC3144302000B4003430B50001
:10587000B431F924AC3100302000B4000030B50060
:10588000B431E724AC312100BC012000D301200059
:10589000D2015B302000B60036082000D100200085
:1058A000D0012000CF012100BE0121009116080087
:1058B000B4311A24AC312000AF0022003D0886002C
:1058C0003E08870020002F08810001302200BD071C
:1058D0000030BE3D01302200BF020030C03B3F0817
:1058E00040040319742C752C7A2CB4314C24AC313F
:1058F0000530A92C2200C315852CB4318624AC3187
:10590000A92CB4318124AC31A92C22002D0820000F
:10591000AE0022002C082000AD00220021088A00E1
:1059200020080A00AC312000AF00B0013008003A76
:1059300003199B2C812C2F08013A0319812C033A5F
:1059400003197D2C013A03197D2C073A0319812C88
:10595000812C0800230019082000A500250820003C
:10596000A700200050082000A50025082000A00066
:1059700020002708A631F126AC31003A0319C12CCA
:10598000C22CEF2C200050083A3E2000A500A601B2
:105990002730A63D25088600260887002000270816
:1059A000810001302000A50025082000D00720003C
:1059B0004D03031DDC2CDD2CDF2C2000D0015B30DF
:1059C00020005002031CE52CE62CE82C2000D0011E
:1059D00001302000A50025082100BE07FD2C200075
:1059E000D0012100BE012200D801D9012200D60138
:1059F000D7012000CE012000CD0108008B1D012D14
:105A0000022D0A2D0B1C052D062D0A2DB531F7256B
:105A1000AC31522D0B1F0D2D0E2D522D2100921D3C
:105A2000122D132D1F2D2000921D172D182D1F2D07
:105A300022005B088A005A080A00AD31522D21006D
:105A4000911D232D242D302D2000911D282D292D31
:105A5000302D22005B088A005A080A00AD31522D11
:105A60002100111E342D352D412D2000111E392D00
:105A70003A2D412D220055088A0054080A00AD3104
:105A8000522D2100911E452D462D522D2000911E94
:105A90004A2D4B2D522D220053088A0052080A002D
:105AA000AD31522D080020003608860037088700E7
:105AB000423101082000B80020003408023E2000D6
:105AC000B90000302000353D2000BA0039088600BA
:105AD0003A08870038088100200036088600370819
:105AE0008700433101082000B80020003408033E3D
:105AF0002000B90000302000353D2000BA003908F0
:105B000086003A08870038088100200036088600A1
:105B100037088700413101082000B8002000340810
:105B2000013E2000B90000302000353D2000BA00C1
:105B3000390886003A0887003808810020003608B6
:105B400086003708870001082000B80020003408CC
:105B500086003508870020003808810008002000F2
:105B6000A8002000200821040319B72DB82DE52D29
:105B7000200028082000A400A501A435A50D203090
:105B8000A6000130A7002408260786002508273D27
:105B9000870020002008C03F2108C13F20002808BE
:105BA0002000A400A501A435A50D2C30A6000130CD
:105BB000A7002408260786002508273D8700200027
:105BC0002208C03F2308C13F0E2E200028082000D5
:105BD000A400A501A435A50D2030A6000130A70022
:105BE0002408260786002508273D87000A30C03F85
:105BF0003430C13F200028082000A400A501A435AE
:105C0000A50D2C30A6000130A70024082607860029
:105C10002508273D87000030C03FC13F0800200015
:105C2000BC002000340835040319172E182E452E09
:105C300020003C082000B800B901B835B90D20306B
:105C4000BA000130BB0038083A07860039083B3DEE
:105C5000870020003408C03F3508C13F20003C08C1
:105C60002000B800B901B835B90D2C30BA000130A8
:105C7000BB0038083A07860039083B3D8700200002
:105C80003608C03F3708C13F6E2E20003C08200078
:105C9000B800B901B835B90D2030BA000130BB00E9
:105CA00038083A07860039083B3D87000A30C03F74
:105CB0003430C13F20003C082000B800B901B8359D
:105CC000B90D2C30BA000130BB0038083A07860005
:105CD00039083B3D87000030C03FC13F080020002D
:105CE000B7002000B601B60A22004319782E792E9B
:105CF000CE2E3C308600013087002000370881001E
:105D00002200C310220043152200431041308600B8
:105D1000013087000E308100F4302200BA000130DB
:105D2000BB002200C3150A302200A0003430A100BD
:105D30002200AC01AD010A302200A2003430A300E1
:105D40002200AE01AF010A302200A4003430A500C9
:105D50002200B001B1010A302200A6003430A700B1
:105D60002200B201B3010C302200A8003430A90097
:105D70002200B401B50150302000B4003430B50029
:105D8000B431CC24AE31B4312324AE31B6315726F0
:105D9000AE31B4312F24AE312000B60120003608D8
:105DA0000800B4319024AE31003A0319D82ED92E10
:105DB0000E2FE62EB4316824AE31332FB4316D246A
:105DC000AE31332FB4317724AE31332F2200330874
:105DD0002000AE00220032082000AD0020308600F6
:105DE000013087004631413F8A00403F0A00AE3112
:105DF0002000AF00B0013008003A0319002FE22E56
:105E00002F08013A0319E22E033A0319DA2E013A58
:105E10000319DE2E073A0319E22EE22E2200431068
:105E200022003E082000B00022003D082000AF0004
:105E30002200BD0A0319BE0A20002F088600300880
:105E400087000108B431AE24AE3101302200BF0218
:105E50000030C03B3F084004031D2F2F302F322F4E
:105E60000630332F03300800210025080319392F8D
:105E70003A2F3F2FB731DD27AF312100A501210097
:105E800021080319442F452F5C2FB5313A25AF3136
:105E90002000C60046082100E40021006408031D1C
:105EA000522F532F572FB5314425AF315A2FB531CB
:105EB000B925AF312100A101210020080319612F6C
:105EC000622F992FB431A824AF312000350821006A
:105ED000E600200034082100E50021006508660482
:105EE0000319732F742F8E2F210066082100C9001B
:105EF000210065082100C800B4313224AF312000F0
:105F0000C60046082100CA0054302100CB000030F2
:105F1000CC00A531E925AF312100A00121006608A0
:105F20002000BE00210065082000BD009931CF216E
:105F3000AF310800AE302100DA000130DB00A931BA
:105F40008F21AF31B3302100DA000130DB0098310E
:105F5000BF20AF312300B201B2302100DA0001309E
:105F6000DB00A8317C20AF31B631F026AF31200004
:105F700037082100E900200036082100E800AE3093
:105F80002100DD000130DE009B31FC23AF31BF304A
:105F90002000B4000030B500B3302000B60001305E
:105FA000B700AD315325AF31C3302000B40000300D
:105FB000B500B3302000B6000130B700AD31532535
:105FC000AF31230032082100E30063082000CC0039
:105FD000230032082100E30063082100A7000830F5
:105FE0002000B4003630B500B5311425AF31003093
:105FF0002000B4001830B500B5311D25AF310800C0
:1068100008000800013008000530080021002A089F
:10682000080024009614080024001615080024000F
:106830009615080024001108080020009115080092
:1068400020009111080020009111080024009512E9
:1068500008002100911108002400161408002100EE
:106860009115080021002A08080021002B080800C3
:1068700021009D1408002100430808002100280879
:1068800008002100AD01080023001D121D1608009C
:1068900024009616161608002400961216160800F4
:1068A000A831F920B431080023001E0C013908007A
:1068B0002200DE01DE0A08000330220097000800F3
:1068C00016302100970008000134003400340034F1
:1068D000B4311124B43101300800B4311124B43181
:1068E00002300800B4311124B43101300800B43151
:1068F0001424B43100300800B4314C24B4310530D4
:106900000800B4314824B4310A300800B4314824B6
:10691000B431093008000030A8312C20B43108000F
:106920002400160E890C890C013908002200C310BE
:106930002200C2010E3008002200C3102200C20152
:106940000E30080027302000B5003A30B4000800AF
:1069500025302000B500DA30B40008002000A00087
:106960002000200824009100080022004310B431C8
:106970001724B43104300800031021009D1C0314B7
:106980000030093D08002200431422003C35B43198
:10699000AE24B43103300800200035082200DB00AB
:1069A000200034082200DA00080020005108031DEE
:1069B000DA2CDC2C0130DD2C0030080021001C0812
:1069C0002000B50021001B082000B40008002000B2
:1069D00035082200CD00200034082200CC00080039
:1069E000200035082200D100200034082200D00009
:1069F0000800200035082200CF00200034082200C3
:106A0000CE000800200035082200D3002000340802
:106A10002200D2000800200035082200D500200006
:106A200034082200D4000800200035082200EC00C1
:106A3000200034082200EB00080020003508220066
:106A4000EA00200034082200E90008002200431474
:106A5000031422003C0DB431AE24B53105300800DA
:106A60000630210043060319362D372D392D21001C
:106A7000C00108002100440803193F2D402D422D7C
:106A80000030432D01300800063021004306031971
:106A90004A2D4B2D4D2D2100C00108002000B500CE
:106AA000200035082000B40034082100A9000800A7
:106AB0002000B500200035082000B4003408210073
:106AC000C70008002000B500200035082000B400F1
:106AD00034082100EE0008002000C801C901200090
:106AE00049082000CB00200048082000CA00080008
:106AF0006400800101310130FE020030FF3B7F085D
:106B00007E04031D792D0034903021009E00210069
:106B10009F0121009B0121009C01013021009D006B
:106B200008002400940128302400950024009601D8
:106B30004F3024009200240095120800703021008C
:106B40009900210098012200960121001A1FA92D09
:106B5000AA2DA52D08000630210043060319B12DEA
:106B6000B22DB82DC0308600003087000130810082
:106B700008000630210043060319BF2DC02DC62D85
:106B8000C0308600003087000130810008002200FC
:106B90006B086C040319CD2DCE2DD42D22006C086A
:106BA0008A006B080A00B531270013100800220084
:106BB00069086A040319DD2DDE2DE42D22006A0820
:106BC0008A0069080A00B5312700931008002100E7
:106BD0001508C039063895006030200095006030F7
:106BE0002000B40034082100BB000B11080027006E
:106BF000131CFB2DFC2DFF2DB531C725B53127000A
:106C0000931C032E042E072EB531D725B53108006D
:106C100021002608031D0D2E0E2E172E21004408DC
:106C2000031D132E142E172EB531AB25B6312100BE
:106C3000A601A60A08002000B500200035082000A3
:106C4000B400B40DB40D21001D08200034068339B2
:106C5000340621009D0021001D140800B4313E249B
:106C6000B631003A0319352E362E3C2E553022000F
:106C7000C6001330C700412ED5302200C6000A30AE
:106C8000C700080020002A082000A10020002908D1
:106C90002000A00020002C082000A30020002B08CA
:106CA0002000A2000030AD31AF25B631080024002D
:106CB000951A5B2E5C2E6A2E240094012830240045
:106CC0009500240096014F30240092002400951670
:106CD00001306B2E0030080020003E082000B50077
:106CE00020003D082000B400200040082000B7002C
:106CF00020003F082000B6000230AE310F26B6312A
:106D0000080020003E082000B50020003D082000BB
:106D1000B400200040082000B70020003F082000F9
:106D2000B6000030AE310F26B631080054302100D5
:106D3000CD000030CE00FA302100DA005A082100E0
:106D4000CF0006302100DB005B082100D000A0311D
:106D50003520B63108007030200099000230200044
:106D60009700200096012000111020001708220033
:106D7000CB00200016082200CA002000980108005D
:106D80002200C31DC42EC52ED72E200021082200AC
:106D9000BE00200020082200BD00200023082200A1
:106DA000C000200022082200BF002200C3110800FA
:106DB0002200C31DDC2EDD2EEF2E20003508220020
:106DC000BE00200034082200BD0020003708220049
:106DD000C000200036082200BF002200C3110800B6
:106DE000B4313824B631F52E6400B431BC24B63148
:106DF000003A0319FC2EFD2EF42EB431DE24B631F8
:106E0000200035082000B700200034082000B6001C
:106E1000080020002E082000A10020002D082000DE
:106E2000A00002302000A2000030A300B631C0262E
:106E3000B73100302000A900AA0000302000AB00CC
:106E4000AC00B6314226B7310430080020002E08CD
:106E50002000A10020002D082000A000013020000B
:106E6000A2000030A300B631C026B73100302000A8
:106E7000A900AA0000302000AB00AC00B6314226C9
:106E8000B7310230080020002E082000A1002000A9
:106E90002D082000A00002302000A2000030A30036
:106EA000B631C026B73100302000A900AA0000305A
:106EB0002000AB00AC00B6314226B73102300800EA
:106EC00020002E082000A10020002D082000A00096
:106ED00001302000A2000030A300B631C026B73137
:106EE00000302000A900AA0000302000AB00AC0058
:106EF000B6314226B731043008001E302000B400FD
:106F000034082000B50030302000B40034082000E0
:106F1000B60001302000B60220003608031D912F74
:106F2000922F892F01302000B5023508031D992FBB
:106F30009A2F892F0800B5319125B731A0319E20B5
:106F4000B731B5319E25B731B4316024B731B43192
:106F50005C24B731B5318425B73190310020B73189
:106F6000B631AB26B731B531E725B731AC3108249E
:106F7000B73108002000B501B50A2200C318C12F9F
:106F8000C22FDA2F220043113C30860001308700E7
:106F9000FF308100B4312324B731B4312924B73113
:106FA000B4312624B731220042082000B40034084E
:106FB0002000B500200035080800B4313B24B7316B
:106FC0002000B40034082000B50001302000B400D7
:106FD00034082000B507073020003502031CF12FCC
:106FE000F22FF82F04302000B40034082000B50040
:106FF000200035082000B40034082100BF0008003C
:107000009634343426343534C3343434D1342E34C5
:1070100058342C34B53434340034203468343434A7
:107020006D34343472343434773434347C3434341E
:1070300081343434863434349C3434345B342934ED
:1070400002340034FF3FFF3FFF3FFF3FFF3FFF3F62
:00000001FF
